{
  "_format": "hh3-artifact-1",
  "contractName": "PropertyNFT",
  "sourceName": "contracts/PropertyNFT.sol",
  "abi": [
    {
      "inputs": [
        {
          "internalType": "address",
          "name": "_rentalNFT",
          "type": "address"
        }
      ],
      "stateMutability": "nonpayable",
      "type": "constructor"
    },
    {
      "inputs": [],
      "name": "AccessControlBadConfirmation",
      "type": "error"
    },
    {
      "inputs": [
        {
          "internalType": "address",
          "name": "account",
          "type": "address"
        },
        {
          "internalType": "bytes32",
          "name": "neededRole",
          "type": "bytes32"
        }
      ],
      "name": "AccessControlUnauthorizedAccount",
      "type": "error"
    },
    {
      "inputs": [
        {
          "internalType": "address",
          "name": "sender",
          "type": "address"
        },
        {
          "internalType": "uint256",
          "name": "tokenId",
          "type": "uint256"
        },
        {
          "internalType": "address",
          "name": "owner",
          "type": "address"
        }
      ],
      "name": "ERC721IncorrectOwner",
      "type": "error"
    },
    {
      "inputs": [
        {
          "internalType": "address",
          "name": "operator",
          "type": "address"
        },
        {
          "internalType": "uint256",
          "name": "tokenId",
          "type": "uint256"
        }
      ],
      "name": "ERC721InsufficientApproval",
      "type": "error"
    },
    {
      "inputs": [
        {
          "internalType": "address",
          "name": "approver",
          "type": "address"
        }
      ],
      "name": "ERC721InvalidApprover",
      "type": "error"
    },
    {
      "inputs": [
        {
          "internalType": "address",
          "name": "operator",
          "type": "address"
        }
      ],
      "name": "ERC721InvalidOperator",
      "type": "error"
    },
    {
      "inputs": [
        {
          "internalType": "address",
          "name": "owner",
          "type": "address"
        }
      ],
      "name": "ERC721InvalidOwner",
      "type": "error"
    },
    {
      "inputs": [
        {
          "internalType": "address",
          "name": "receiver",
          "type": "address"
        }
      ],
      "name": "ERC721InvalidReceiver",
      "type": "error"
    },
    {
      "inputs": [
        {
          "internalType": "address",
          "name": "sender",
          "type": "address"
        }
      ],
      "name": "ERC721InvalidSender",
      "type": "error"
    },
    {
      "inputs": [
        {
          "internalType": "uint256",
          "name": "tokenId",
          "type": "uint256"
        }
      ],
      "name": "ERC721NonexistentToken",
      "type": "error"
    },
    {
      "anonymous": false,
      "inputs": [
        {
          "indexed": true,
          "internalType": "address",
          "name": "owner",
          "type": "address"
        },
        {
          "indexed": true,
          "internalType": "address",
          "name": "approved",
          "type": "address"
        },
        {
          "indexed": true,
          "internalType": "uint256",
          "name": "tokenId",
          "type": "uint256"
        }
      ],
      "name": "Approval",
      "type": "event"
    },
    {
      "anonymous": false,
      "inputs": [
        {
          "indexed": true,
          "internalType": "address",
          "name": "owner",
          "type": "address"
        },
        {
          "indexed": true,
          "internalType": "address",
          "name": "operator",
          "type": "address"
        },
        {
          "indexed": false,
          "internalType": "bool",
          "name": "approved",
          "type": "bool"
        }
      ],
      "name": "ApprovalForAll",
      "type": "event"
    },
    {
      "anonymous": false,
      "inputs": [
        {
          "indexed": false,
          "internalType": "uint256",
          "name": "_fromTokenId",
          "type": "uint256"
        },
        {
          "indexed": false,
          "internalType": "uint256",
          "name": "_toTokenId",
          "type": "uint256"
        }
      ],
      "name": "BatchMetadataUpdate",
      "type": "event"
    },
    {
      "anonymous": false,
      "inputs": [
        {
          "indexed": false,
          "internalType": "uint256",
          "name": "_tokenId",
          "type": "uint256"
        }
      ],
      "name": "MetadataUpdate",
      "type": "event"
    },
    {
      "anonymous": false,
      "inputs": [
        {
          "indexed": true,
          "internalType": "uint256",
          "name": "propertyId",
          "type": "uint256"
        },
        {
          "indexed": true,
          "internalType": "address",
          "name": "owner",
          "type": "address"
        },
        {
          "indexed": false,
          "internalType": "string",
          "name": "tokenURI",
          "type": "string"
        },
        {
          "indexed": false,
          "internalType": "int256",
          "name": "latitude",
          "type": "int256"
        },
        {
          "indexed": false,
          "internalType": "int256",
          "name": "longitude",
          "type": "int256"
        }
      ],
      "name": "PropertyMinted",
      "type": "event"
    },
    {
      "anonymous": false,
      "inputs": [
        {
          "indexed": true,
          "internalType": "bytes32",
          "name": "role",
          "type": "bytes32"
        },
        {
          "indexed": true,
          "internalType": "bytes32",
          "name": "previousAdminRole",
          "type": "bytes32"
        },
        {
          "indexed": true,
          "internalType": "bytes32",
          "name": "newAdminRole",
          "type": "bytes32"
        }
      ],
      "name": "RoleAdminChanged",
      "type": "event"
    },
    {
      "anonymous": false,
      "inputs": [
        {
          "indexed": true,
          "internalType": "bytes32",
          "name": "role",
          "type": "bytes32"
        },
        {
          "indexed": true,
          "internalType": "address",
          "name": "account",
          "type": "address"
        },
        {
          "indexed": true,
          "internalType": "address",
          "name": "sender",
          "type": "address"
        }
      ],
      "name": "RoleGranted",
      "type": "event"
    },
    {
      "anonymous": false,
      "inputs": [
        {
          "indexed": true,
          "internalType": "bytes32",
          "name": "role",
          "type": "bytes32"
        },
        {
          "indexed": true,
          "internalType": "address",
          "name": "account",
          "type": "address"
        },
        {
          "indexed": true,
          "internalType": "address",
          "name": "sender",
          "type": "address"
        }
      ],
      "name": "RoleRevoked",
      "type": "event"
    },
    {
      "anonymous": false,
      "inputs": [
        {
          "indexed": true,
          "internalType": "address",
          "name": "from",
          "type": "address"
        },
        {
          "indexed": true,
          "internalType": "address",
          "name": "to",
          "type": "address"
        },
        {
          "indexed": true,
          "internalType": "uint256",
          "name": "tokenId",
          "type": "uint256"
        }
      ],
      "name": "Transfer",
      "type": "event"
    },
    {
      "inputs": [],
      "name": "DEFAULT_ADMIN_ROLE",
      "outputs": [
        {
          "internalType": "bytes32",
          "name": "",
          "type": "bytes32"
        }
      ],
      "stateMutability": "view",
      "type": "function"
    },
    {
      "inputs": [],
      "name": "MERCATOR_MAX",
      "outputs": [
        {
          "internalType": "int256",
          "name": "",
          "type": "int256"
        }
      ],
      "stateMutability": "view",
      "type": "function"
    },
    {
      "inputs": [],
      "name": "MERCATOR_MIN",
      "outputs": [
        {
          "internalType": "int256",
          "name": "",
          "type": "int256"
        }
      ],
      "stateMutability": "view",
      "type": "function"
    },
    {
      "inputs": [],
      "name": "MINTER_ROLE",
      "outputs": [
        {
          "internalType": "bytes32",
          "name": "",
          "type": "bytes32"
        }
      ],
      "stateMutability": "view",
      "type": "function"
    },
    {
      "inputs": [
        {
          "internalType": "address",
          "name": "to",
          "type": "address"
        },
        {
          "internalType": "uint256",
          "name": "tokenId",
          "type": "uint256"
        }
      ],
      "name": "approve",
      "outputs": [],
      "stateMutability": "nonpayable",
      "type": "function"
    },
    {
      "inputs": [
        {
          "internalType": "address",
          "name": "owner",
          "type": "address"
        }
      ],
      "name": "balanceOf",
      "outputs": [
        {
          "internalType": "uint256",
          "name": "",
          "type": "uint256"
        }
      ],
      "stateMutability": "view",
      "type": "function"
    },
    {
      "inputs": [
        {
          "internalType": "uint256",
          "name": "tokenId",
          "type": "uint256"
        }
      ],
      "name": "getApproved",
      "outputs": [
        {
          "internalType": "address",
          "name": "",
          "type": "address"
        }
      ],
      "stateMutability": "view",
      "type": "function"
    },
    {
      "inputs": [
        {
          "internalType": "bytes32",
          "name": "role",
          "type": "bytes32"
        }
      ],
      "name": "getRoleAdmin",
      "outputs": [
        {
          "internalType": "bytes32",
          "name": "",
          "type": "bytes32"
        }
      ],
      "stateMutability": "view",
      "type": "function"
    },
    {
      "inputs": [
        {
          "internalType": "bytes32",
          "name": "role",
          "type": "bytes32"
        },
        {
          "internalType": "address",
          "name": "account",
          "type": "address"
        }
      ],
      "name": "grantRole",
      "outputs": [],
      "stateMutability": "nonpayable",
      "type": "function"
    },
    {
      "inputs": [
        {
          "internalType": "bytes32",
          "name": "role",
          "type": "bytes32"
        },
        {
          "internalType": "address",
          "name": "account",
          "type": "address"
        }
      ],
      "name": "hasRole",
      "outputs": [
        {
          "internalType": "bool",
          "name": "",
          "type": "bool"
        }
      ],
      "stateMutability": "view",
      "type": "function"
    },
    {
      "inputs": [
        {
          "internalType": "address",
          "name": "owner",
          "type": "address"
        },
        {
          "internalType": "address",
          "name": "operator",
          "type": "address"
        }
      ],
      "name": "isApprovedForAll",
      "outputs": [
        {
          "internalType": "bool",
          "name": "",
          "type": "bool"
        }
      ],
      "stateMutability": "view",
      "type": "function"
    },
    {
      "inputs": [
        {
          "internalType": "address",
          "name": "to",
          "type": "address"
        },
        {
          "internalType": "string",
          "name": "_tokenURI",
          "type": "string"
        },
        {
          "internalType": "int256",
          "name": "latitude",
          "type": "int256"
        },
        {
          "internalType": "int256",
          "name": "longitude",
          "type": "int256"
        }
      ],
      "name": "mint",
      "outputs": [
        {
          "internalType": "uint256",
          "name": "",
          "type": "uint256"
        }
      ],
      "stateMutability": "nonpayable",
      "type": "function"
    },
    {
      "inputs": [],
      "name": "name",
      "outputs": [
        {
          "internalType": "string",
          "name": "",
          "type": "string"
        }
      ],
      "stateMutability": "view",
      "type": "function"
    },
    {
      "inputs": [
        {
          "internalType": "uint256",
          "name": "tokenId",
          "type": "uint256"
        }
      ],
      "name": "ownerOf",
      "outputs": [
        {
          "internalType": "address",
          "name": "",
          "type": "address"
        }
      ],
      "stateMutability": "view",
      "type": "function"
    },
    {
      "inputs": [
        {
          "internalType": "uint256",
          "name": "",
          "type": "uint256"
        }
      ],
      "name": "propertyLocations",
      "outputs": [
        {
          "internalType": "int256",
          "name": "latitude",
          "type": "int256"
        },
        {
          "internalType": "int256",
          "name": "longitude",
          "type": "int256"
        }
      ],
      "stateMutability": "view",
      "type": "function"
    },
    {
      "inputs": [
        {
          "internalType": "bytes32",
          "name": "role",
          "type": "bytes32"
        },
        {
          "internalType": "address",
          "name": "callerConfirmation",
          "type": "address"
        }
      ],
      "name": "renounceRole",
      "outputs": [],
      "stateMutability": "nonpayable",
      "type": "function"
    },
    {
      "inputs": [],
      "name": "rentalNFT",
      "outputs": [
        {
          "internalType": "address",
          "name": "",
          "type": "address"
        }
      ],
      "stateMutability": "view",
      "type": "function"
    },
    {
      "inputs": [
        {
          "internalType": "bytes32",
          "name": "role",
          "type": "bytes32"
        },
        {
          "internalType": "address",
          "name": "account",
          "type": "address"
        }
      ],
      "name": "revokeRole",
      "outputs": [],
      "stateMutability": "nonpayable",
      "type": "function"
    },
    {
      "inputs": [
        {
          "internalType": "address",
          "name": "from",
          "type": "address"
        },
        {
          "internalType": "address",
          "name": "to",
          "type": "address"
        },
        {
          "internalType": "uint256",
          "name": "tokenId",
          "type": "uint256"
        }
      ],
      "name": "safeTransferFrom",
      "outputs": [],
      "stateMutability": "nonpayable",
      "type": "function"
    },
    {
      "inputs": [
        {
          "internalType": "address",
          "name": "from",
          "type": "address"
        },
        {
          "internalType": "address",
          "name": "to",
          "type": "address"
        },
        {
          "internalType": "uint256",
          "name": "tokenId",
          "type": "uint256"
        },
        {
          "internalType": "bytes",
          "name": "data",
          "type": "bytes"
        }
      ],
      "name": "safeTransferFrom",
      "outputs": [],
      "stateMutability": "nonpayable",
      "type": "function"
    },
    {
      "inputs": [
        {
          "internalType": "address",
          "name": "operator",
          "type": "address"
        },
        {
          "internalType": "bool",
          "name": "approved",
          "type": "bool"
        }
      ],
      "name": "setApprovalForAll",
      "outputs": [],
      "stateMutability": "nonpayable",
      "type": "function"
    },
    {
      "inputs": [
        {
          "internalType": "bytes4",
          "name": "interfaceId",
          "type": "bytes4"
        }
      ],
      "name": "supportsInterface",
      "outputs": [
        {
          "internalType": "bool",
          "name": "",
          "type": "bool"
        }
      ],
      "stateMutability": "view",
      "type": "function"
    },
    {
      "inputs": [],
      "name": "symbol",
      "outputs": [
        {
          "internalType": "string",
          "name": "",
          "type": "string"
        }
      ],
      "stateMutability": "view",
      "type": "function"
    },
    {
      "inputs": [
        {
          "internalType": "uint256",
          "name": "tokenId",
          "type": "uint256"
        }
      ],
      "name": "tokenURI",
      "outputs": [
        {
          "internalType": "string",
          "name": "",
          "type": "string"
        }
      ],
      "stateMutability": "view",
      "type": "function"
    },
    {
      "inputs": [
        {
          "internalType": "address",
          "name": "from",
          "type": "address"
        },
        {
          "internalType": "address",
          "name": "to",
          "type": "address"
        },
        {
          "internalType": "uint256",
          "name": "tokenId",
          "type": "uint256"
        }
      ],
      "name": "transferFrom",
      "outputs": [],
      "stateMutability": "nonpayable",
      "type": "function"
    }
  ],
  "bytecode": "0x60a0346200034057601f1990601f6001600160401b0362001c0b3881900383810186168501838111868210176200026257859282916040528339602094859181010312620003405751916001600160a01b038316830362000340576200006462000344565b93600c85526b141c9bdc195c9d1e4813919560a21b818601526200008762000344565b956004875263050524f560e41b82880152855184811162000262575f546001978882811c9216801562000335575b8583101462000243578186849311620002e2575b50849086831160011462000282575f9262000276575b50505f19600383901b1c191690871b175f555b8651938411620002625785548681811c9116801562000257575b838210146200024357838111620001fb575b508192841160011462000196575050819293945f926200018a575b50505f19600383901b1c191690831b1782555b6080526200015a3362000364565b506200016633620003d4565b5060085560405161175590816200047682396080518181816107160152610c430152f35b015190505f8062000139565b5f868152828120918516979193925b888210620001e357505083869796959610620001ca575b505050811b0182556200014c565b01515f1960f88460031b161c191690555f8080620001bc565b808885968294968601518155019501930190620001a5565b865f52825f208480870160051c82019285881062000239575b0160051c019087905b8281106200022d5750506200011e565b5f81550187906200021d565b9250819262000214565b634e487b7160e01b5f52602260045260245ffd5b90607f16906200010c565b634e487b7160e01b5f52604160045260245ffd5b015190505f80620000df565b90848a9416915f8052865f20925f5b88828210620002cb5750508411620002b2575b505050811b015f55620000f2565b01515f1960f88460031b161c191690555f8080620002a4565b8385015186558d9790950194938401930162000291565b9091505f8052845f208680850160051c8201928786106200032b575b918b91869594930160051c01915b8281106200031c575050620000c9565b5f81558594508b91016200030c565b92508192620002fe565b91607f1691620000b5565b5f80fd5b60408051919082016001600160401b038111838210176200026257604052565b6001600160a01b03165f8181525f8051602062001beb833981519152602052604090205460ff16620003cf575f8181525f8051602062001beb83398151915260205260408120805460ff191660011790553391905f8051602062001bcb8339815191528180a4600190565b505f90565b6001600160a01b03165f8181527fa4bfd7afe708e2e87e7f0e2ad9b4d545417e0f795f57b5c5ab5d799c565a04f460205260409020547f9f2df0fed2c77648de5860a4cc508cd0818c85b8b8a1ab4ceeef8d981c8956a6919060ff166200046f57815f52600760205260405f20815f5260205260405f20600160ff1982541617905533915f8051602062001bcb8339815191525f80a4600190565b50505f9056fe6080806040526004361015610012575f80fd5b5f905f3560e01c90816301ffc9a714610f9f5750806306fdde0314610ed7578063081812fc14610e9b578063095ea7b314610dba5780631f29d46714610d9c57806323b872dd14610d85578063248a9ca314610d585780632f2ff15d14610d1b57806333b31fc114610ce857806336568abe14610ca157806342842e0e14610c7257806349c2beae14610c2e5780636352211e14610bfe57806370a0823114610ba85780639154dca4146104dd57806391d148541461049357806395d89b41146103b0578063a217fddf14610394578063a22cb465146102ce578063b88d4fde1461025a578063ba6fe8b81461023a578063c87b56dd14610202578063d5391393146101c7578063d547741f146101855763e985e9c514610131575f80fd5b346101825760403660031901126101825761014a61108f565b60406101546110a5565b9260018060a01b03809316815260056020522091165f52602052602060ff60405f2054166040519015158152f35b80fd5b5034610182576040366003190112610182576101c36004356101a56110a5565b9080845260076020526101be6001604086200154611378565b611418565b5080f35b503461018257806003193601126101825760206040517f9f2df0fed2c77648de5860a4cc508cd0818c85b8b8a1ab4ceeef8d981c8956a68152f35b5034610182576020366003190112610182576102366102226004356115d6565b60405191829160208352602083019061106a565b0390f35b50346101825780600319360112610182576020604051630131bf84198152f35b50346101825760803660031901126101825761027461108f565b61027c6110a5565b906044356064359267ffffffffffffffff84116102ca57366023850112156102ca576102b56102c794369060248160040135910161114a565b926102c18383836111b8565b3361148c565b80f35b8480fd5b5034610182576040366003190112610182576102e861108f565b60243590811515809203610390573315610377576001600160a01b031690811561035e57338352600560205260408320825f5260205260405f2060ff1981541660ff83161790556040519081527f17307eab39ab6107e8899845ad3d59bd9653f200f220920489ca2b5937696c3160203392a380f35b604051630b61174360e31b815260048101839052602490fd5b60405163a9fbf51f60e01b815260048101849052602490fd5b8280fd5b5034610182578060031936011261018257602090604051908152f35b5034610182578060031936011261018257604051908082600192600154936103d785611180565b93848452602095866001821691825f14610471575050600114610417575b50506104039250038361110c565b61023660405192828493845283019061106a565b90859250600182527fb10e2d527612073b26eecdfd717e6a320cf44b4afac2b0732d9fcbe2b7fa0cf65b85831061045957505061040393508201015f806103f5565b80548389018501528794508693909201918101610441565b925093505061040394915060ff191682840152151560051b8201015f806103f5565b50346101825760403660031901126101825760406104af6110a5565b9160043581526007602052209060018060a01b03165f52602052602060ff60405f2054166040519015158152f35b5034610883576080366003190112610883576104f761108f565b9060243567ffffffffffffffff811161088357366023820112156108835767ffffffffffffffff8160040135116108835736602482600401358301011161088357335f9081527fa4bfd7afe708e2e87e7f0e2ad9b4d545417e0f795f57b5c5ab5d799c565a04f460205260409020547f9f2df0fed2c77648de5860a4cc508cd0818c85b8b8a1ab4ceeef8d981c8956a69060ff1615610b8a5750630131bf841980604435121580610b7a575b15610b4257606435121580610b32575b15610af957600854915f198314610ae557600183016008556040516105d7816110f0565b5f81526001600160a01b03851615610acd575f848152600260205260409020546001600160a01b031680151590859082610a9a575b6001600160a01b0388165f818152600360209081526040808320805460010190558583526002909152812080546001600160a01b031916831790559091907fddf252ad1be2c89b69c2b068fc378daa952ba7f163c4a11628f55a4df523b3ef9080a4610a8257843b610947575b5061068c3683600401356024850161114a565b835f52600660205260405f209080519067ffffffffffffffff82116108495781906106b78454611180565b601f81116108fa575b50602090601f8311600114610892575f92610887575b50508160011b915f199060031b1c19161790555b7ff8e1a15aba9398e019f0b49df1a4fde98ee17ae345cb5f6b5e2c27f5033e8ce76020604051858152a17f00000000000000000000000000000000000000000000000000000000000000006001600160a01b0316803b15610883576040516340c10f1960e01b81526001600160a01b038616600482015260248101859052905f908290604490829084905af180156108785761085d575b50604051604081019481861067ffffffffffffffff87111761084957608085937f035b12e0fe4ff7034c52f22c611e0db3da310ed1d13a8fb9ac61ce4d88e662999360209860405260443581526001898201606435815287845260098b526040842092518355519101556040519283916060835287600401356060840152876004013560248901858501376004909701358281018401979097526044358983015260643560408301526001600160a01b031695601f01601f19168101030190a3604051908152f35b634e487b7160e01b5f52604160045260245ffd5b905067ffffffffffffffff8111610849576040525f80610781565b6040513d5f823e3d90fd5b5f80fd5b015190505f806106d6565b9250835f5260205f20905f935b601f19841685106108df576001945083601f198116106108c7575b505050811b0190556106ea565b01515f1960f88460031b161c191690555f80806108ba565b8181015183556020948501946001909301929091019061089f565b909150835f5260205f20601f840160051c810160208510610940575b90849392915b601f830160051c820181106109325750506106c0565b5f815585945060010161091c565b5080610916565b60206109819160405180938192630a85bd0160e11b83523360048401525f602484015288604484015260806064840152608483019061106a565b03815f6001600160a01b038a165af15f9181610a3d575b506109ff57843d156109f7573d906109af8261112e565b916109bd604051938461110c565b82523d5f602084013e5b815191826109f057604051633250574960e11b81526001600160a01b0383166004820152602490fd5b6020915001fd5b6060906109c7565b6001600160e01b03191663757a42ff60e11b01610a1c575f610679565b604051633250574960e11b81526001600160a01b0385166004820152602490fd5b9091506020813d602011610a7a575b81610a596020938361110c565b8101031261088357516001600160e01b03198116810361088357905f610998565b3d9150610a4c565b6040516339e3563760e11b81525f6004820152602490fd5b5f82815260046020526040902080546001600160a01b0319169055805f52600360205260405f205f19815401905561060c565b604051633250574960e11b81525f6004820152602490fd5b634e487b7160e01b5f52601160045260245ffd5b60405162461bcd60e51b8152602060048201526011602482015270496e76616c6964206c6f6e67697475646560781b6044820152606490fd5b50630131bf8560643513156105b3565b60405162461bcd60e51b815260206004820152601060248201526f496e76616c6964206c6174697475646560801b6044820152606490fd5b50630131bf8560443513156105a3565b6044906040519063e2517d3f60e01b82523360048301526024820152fd5b34610883576020366003190112610883576001600160a01b03610bc961108f565b168015610be6575f526003602052602060405f2054604051908152f35b6040516322718ad960e21b81525f6004820152602490fd5b34610883576020366003190112610883576020610c1c60043561133e565b6040516001600160a01b039091168152f35b34610883575f366003190112610883576040517f00000000000000000000000000000000000000000000000000000000000000006001600160a01b03168152602090f35b3461088357610c9f610c83366110bb565b9060405192610c91846110f0565b5f84526102c18383836111b8565b005b3461088357604036600319011261088357610cba6110a5565b336001600160a01b03821603610cd657610c9f90600435611418565b60405163334bd91960e11b8152600490fd5b34610883576020366003190112610883576004355f5260096020526040805f206001815491015482519182526020820152f35b3461088357604036600319011261088357610c9f600435610d3a6110a5565b90805f526007602052610d53600160405f200154611378565b61139a565b34610883576020366003190112610883576004355f5260076020526020600160405f200154604051908152f35b3461088357610c9f610d96366110bb565b916111b8565b34610883575f366003190112610883576020604051630131bf858152f35b3461088357604036600319011261088357610dd361108f565b602435610ddf8161133e565b33151580610e88575b80610e5f575b610e47576001600160a01b039283169282918491167f8c5be1e5ebec7d5bd14f71427d1e84f3dd0314c0f7b2291e5b200ac8c7c3b9255f80a45f90815260046020526040902080546001600160a01b0319169091179055005b60405163a9fbf51f60e01b8152336004820152602490fd5b5060018060a01b0381165f52600560205260405f20335f5260205260ff60405f20541615610dee565b506001600160a01b038116331415610de8565b3461088357602036600319011261088357600435610eb88161133e565b505f526004602052602060018060a01b0360405f205416604051908152f35b34610883575f366003190112610883576040515f80549082610ef883611180565b91828252602093600190856001821691825f14610f7f575050600114610f26575b506104039250038361110c565b5f808052859250907f290decd9548b62a8d60345a988386fc84ba6bc95484008f6362f93160ef3e5635b858310610f67575050610403935082010185610f19565b80548389018501528794508693909201918101610f50565b60ff19168582015261040395151560051b8501019250879150610f199050565b34610883576020366003190112610883576004359063ffffffff60e01b821680920361088357602091637965db0b60e01b8114908115610ff9575b8115610fe8575b5015158152f35b636c4b310560e11b14905083610fe1565b9050632483248360e11b81148015611012575b90610fda565b506380ac58cd60e01b81148015611039575b8061100c57506301ffc9a760e01b811461100c565b50635b5e139f60e01b8114611024565b5f5b83811061105a5750505f910152565b818101518382015260200161104b565b9060209161108381518092818552858086019101611049565b601f01601f1916010190565b600435906001600160a01b038216820361088357565b602435906001600160a01b038216820361088357565b6060906003190112610883576001600160a01b0390600435828116810361088357916024359081168103610883579060443590565b6020810190811067ffffffffffffffff82111761084957604052565b90601f8019910116810190811067ffffffffffffffff82111761084957604052565b67ffffffffffffffff811161084957601f01601f191660200190565b9291926111568261112e565b91611164604051938461110c565b829481845281830111610883578281602093845f960137010152565b90600182811c921680156111ae575b602083101461119a57565b634e487b7160e01b5f52602260045260245ffd5b91607f169161118f565b6001600160a01b039182169290918315610acd57815f52602092600284528260409583875f20541695331515806112a9575b5060029087611278575b825f5260038152885f2060018154019055835f5252865f20816bffffffffffffffffffffffff60a01b825416179055857fddf252ad1be2c89b69c2b068fc378daa952ba7f163c4a11628f55a4df523b3ef5f80a416928383036112575750505050565b6064945051926364283d7b60e01b8452600484015260248301526044820152fd5b5f84815260046020526040812080546001600160a01b03191690558881526003825289902080545f190190556111f4565b91925090806112fd575b156112c1579084915f6111ea565b8685876112de576024915190637e27328960e01b82526004820152fd5b905163177e802f60e01b81523360048201526024810191909152604490fd5b503386148015611322575b806112b35750845f52600481523384885f205416146112b3565b50855f5260058152865f20335f52815260ff875f205416611308565b5f818152600260205260409020546001600160a01b0316908115611360575090565b60249060405190637e27328960e01b82526004820152fd5b805f52600760205260405f20335f5260205260ff60405f20541615610b8a5750565b90815f52600760205260405f209060018060a01b031690815f5260205260ff60405f205416155f1461141257815f52600760205260405f20815f5260205260405f20600160ff1982541617905533917f2f8788117e7eff1d82e926ec794901d17c78024a50270940304540a733656f0d5f80a4600190565b50505f90565b90815f52600760205260405f209060018060a01b031690815f5260205260ff60405f2054165f1461141257815f52600760205260405f20815f5260205260405f2060ff19815416905533917ff6391f5c32d9c69d2a47ea670b442974b53935d1edc7fd64eb21e047a839171b5f80a4600190565b9293909193843b61149f575b5050505050565b604051630a85bd0160e11b8082526001600160a01b0395861660048301529385166024820152604481019190915260806064820152602095949093169392908590829081906114f290608483019061106a565b03815f885af15f9181611596575b5061155f575050503d5f14611557573d9161151a8361112e565b92611528604051948561110c565b83523d5f8285013e5b8251928361155257604051633250574960e11b815260048101849052602490fd5b019050fd5b606091611531565b9193506001600160e01b03199091160361157e57505f80808080611498565b60249060405190633250574960e11b82526004820152fd5b9091508581813d83116115cf575b6115ae818361110c565b8101031261088357516001600160e01b03198116810361088357905f611500565b503d6115a4565b6115df8161133e565b5060408051916115ee836110f0565b5f8352805f52602060068152825f20938351945f8682549161160f83611180565b9283835286830194600191886001821691825f146116ff5750506001146116c2575b505061163f9250038761110c565b81519586156116b857805161167b575050505061165d91925061133e565b505f815161166a816110f0565b5251611675816110f0565b5f815290565b90919293506116a98661169a6116b59751988996888089019101611049565b84019151809386840190611049565b0103808452018261110c565b90565b9550505050505090565b8792505f52815f20905f915b8583106116e657505061163f93508201015f80611631565b81948484839695965492010152019101899287926116ce565b925093505061163f94915060ff19168552151560051b8201015f8061163156fea2646970667358221220db1de5313360aff9c6e8689393d5ae91e75ebe42faf3f27fa5e23c59b8a5502b64736f6c634300081800332f8788117e7eff1d82e926ec794901d17c78024a50270940304540a733656f0d6d5257204ebe7d88fd91ae87941cb2dd9d8062b64ae5a2bd2d28ec40b9fbf6df",
  "linkReferences": {},
  "deployedLinkReferences": {},
  "immutableReferences": {
    "9310": [
      {
        "length": 32,
        "start": 1814
      },
      {
        "length": 32,
        "start": 3139
      }
    ]
  },
  "inputSourceName": "project/contracts/PropertyNFT.sol",
  "buildInfoId": "solc-0_8_24-28ca4515485ea78a5ce01a7e01681fee3b74eee8"
}