{
  "_format": "hh3-artifact-1",
  "contractName": "RentalAgreement",
  "sourceName": "contracts/RentalAgreement.sol",
  "abi": [
    {
      "inputs": [
        {
          "internalType": "address",
          "name": "_propertyNFT",
          "type": "address"
        },
        {
          "internalType": "uint256",
          "name": "_propertyId",
          "type": "uint256"
        },
        {
          "internalType": "address",
          "name": "_tenant",
          "type": "address"
        },
        {
          "internalType": "address",
          "name": "_usdcToken",
          "type": "address"
        },
        {
          "internalType": "address",
          "name": "_rentalNFT",
          "type": "address"
        },
        {
          "internalType": "uint256",
          "name": "_baseRent",
          "type": "uint256"
        },
        {
          "internalType": "uint256",
          "name": "_securityDeposit",
          "type": "uint256"
        },
        {
          "internalType": "uint256",
          "name": "_inflationBps",
          "type": "uint256"
        },
        {
          "internalType": "uint256",
          "name": "_lateFeeBps",
          "type": "uint256"
        },
        {
          "internalType": "uint256",
          "name": "_gracePeriod",
          "type": "uint256"
        },
        {
          "internalType": "uint256",
          "name": "_paymentPeriod",
          "type": "uint256"
        },
        {
          "internalType": "uint256",
          "name": "_inflationAdjustmentInterval",
          "type": "uint256"
        },
        {
          "internalType": "uint256",
          "name": "_duration",
          "type": "uint256"
        },
        {
          "internalType": "uint256",
          "name": "_deadline",
          "type": "uint256"
        }
      ],
      "stateMutability": "nonpayable",
      "type": "constructor"
    },
    {
      "inputs": [],
      "name": "AgreementDeadlineExceeded",
      "type": "error"
    },
    {
      "inputs": [],
      "name": "DepositAlreadySettled",
      "type": "error"
    },
    {
      "inputs": [],
      "name": "DepositNotLocked",
      "type": "error"
    },
    {
      "inputs": [],
      "name": "InvalidClaimAmount",
      "type": "error"
    },
    {
      "inputs": [],
      "name": "InvalidState",
      "type": "error"
    },
    {
      "inputs": [],
      "name": "LeaseTermNotEnded",
      "type": "error"
    },
    {
      "inputs": [],
      "name": "NoRentToWithdraw",
      "type": "error"
    },
    {
      "inputs": [],
      "name": "ReentrancyGuardReentrantCall",
      "type": "error"
    },
    {
      "inputs": [],
      "name": "RentNotOverdue",
      "type": "error"
    },
    {
      "inputs": [
        {
          "internalType": "address",
          "name": "token",
          "type": "address"
        }
      ],
      "name": "SafeERC20FailedOperation",
      "type": "error"
    },
    {
      "inputs": [],
      "name": "UnauthorizedCaller",
      "type": "error"
    },
    {
      "inputs": [],
      "name": "UnauthorizedLandlord",
      "type": "error"
    },
    {
      "inputs": [],
      "name": "UnauthorizedTenant",
      "type": "error"
    },
    {
      "anonymous": false,
      "inputs": [
        {
          "indexed": true,
          "internalType": "address",
          "name": "agreementAddress",
          "type": "address"
        },
        {
          "indexed": true,
          "internalType": "uint256",
          "name": "propertyId",
          "type": "uint256"
        }
      ],
      "name": "AgreementActivated",
      "type": "event"
    },
    {
      "anonymous": false,
      "inputs": [],
      "name": "AgreementCancelled",
      "type": "event"
    },
    {
      "anonymous": false,
      "inputs": [],
      "name": "AgreementCompleted",
      "type": "event"
    },
    {
      "anonymous": false,
      "inputs": [],
      "name": "AgreementDefaulted",
      "type": "event"
    },
    {
      "anonymous": false,
      "inputs": [],
      "name": "AgreementExpired",
      "type": "event"
    },
    {
      "anonymous": false,
      "inputs": [],
      "name": "AgreementPending",
      "type": "event"
    },
    {
      "anonymous": false,
      "inputs": [
        {
          "indexed": false,
          "internalType": "uint256",
          "name": "amount",
          "type": "uint256"
        },
        {
          "indexed": false,
          "internalType": "string",
          "name": "reason",
          "type": "string"
        }
      ],
      "name": "DepositClaimed",
      "type": "event"
    },
    {
      "anonymous": false,
      "inputs": [
        {
          "indexed": false,
          "internalType": "uint256",
          "name": "amount",
          "type": "uint256"
        }
      ],
      "name": "DepositLocked",
      "type": "event"
    },
    {
      "anonymous": false,
      "inputs": [
        {
          "indexed": false,
          "internalType": "uint256",
          "name": "amount",
          "type": "uint256"
        }
      ],
      "name": "DepositReleased",
      "type": "event"
    },
    {
      "anonymous": false,
      "inputs": [
        {
          "indexed": true,
          "internalType": "address",
          "name": "landlord",
          "type": "address"
        }
      ],
      "name": "LandlordApproved",
      "type": "event"
    },
    {
      "anonymous": false,
      "inputs": [
        {
          "indexed": true,
          "internalType": "uint256",
          "name": "monthIndex",
          "type": "uint256"
        },
        {
          "indexed": false,
          "internalType": "uint256",
          "name": "amount",
          "type": "uint256"
        }
      ],
      "name": "LateFeeApplied",
      "type": "event"
    },
    {
      "anonymous": false,
      "inputs": [
        {
          "indexed": true,
          "internalType": "uint256",
          "name": "monthIndex",
          "type": "uint256"
        },
        {
          "indexed": false,
          "internalType": "uint256",
          "name": "amount",
          "type": "uint256"
        },
        {
          "indexed": false,
          "internalType": "uint256",
          "name": "lateFeeApplied",
          "type": "uint256"
        }
      ],
      "name": "RentPaid",
      "type": "event"
    },
    {
      "anonymous": false,
      "inputs": [
        {
          "indexed": true,
          "internalType": "address",
          "name": "tenant",
          "type": "address"
        }
      ],
      "name": "TenantApproved",
      "type": "event"
    },
    {
      "inputs": [],
      "name": "approveAgreement",
      "outputs": [],
      "stateMutability": "nonpayable",
      "type": "function"
    },
    {
      "inputs": [],
      "name": "baseRent",
      "outputs": [
        {
          "internalType": "uint256",
          "name": "",
          "type": "uint256"
        }
      ],
      "stateMutability": "view",
      "type": "function"
    },
    {
      "inputs": [],
      "name": "cancelAgreement",
      "outputs": [],
      "stateMutability": "nonpayable",
      "type": "function"
    },
    {
      "inputs": [],
      "name": "checkExpiration",
      "outputs": [],
      "stateMutability": "nonpayable",
      "type": "function"
    },
    {
      "inputs": [
        {
          "internalType": "uint256",
          "name": "amount",
          "type": "uint256"
        },
        {
          "internalType": "string",
          "name": "reason",
          "type": "string"
        }
      ],
      "name": "claimDeposit",
      "outputs": [],
      "stateMutability": "nonpayable",
      "type": "function"
    },
    {
      "inputs": [],
      "name": "completeAgreement",
      "outputs": [],
      "stateMutability": "nonpayable",
      "type": "function"
    },
    {
      "inputs": [],
      "name": "deadline",
      "outputs": [
        {
          "internalType": "uint256",
          "name": "",
          "type": "uint256"
        }
      ],
      "stateMutability": "view",
      "type": "function"
    },
    {
      "inputs": [],
      "name": "declareDefault",
      "outputs": [],
      "stateMutability": "nonpayable",
      "type": "function"
    },
    {
      "inputs": [],
      "name": "depositStatus",
      "outputs": [
        {
          "internalType": "enum IRentalAgreement.DepositStatus",
          "name": "",
          "type": "uint8"
        }
      ],
      "stateMutability": "view",
      "type": "function"
    },
    {
      "inputs": [],
      "name": "duration",
      "outputs": [
        {
          "internalType": "uint256",
          "name": "",
          "type": "uint256"
        }
      ],
      "stateMutability": "view",
      "type": "function"
    },
    {
      "inputs": [],
      "name": "factory",
      "outputs": [
        {
          "internalType": "address",
          "name": "",
          "type": "address"
        }
      ],
      "stateMutability": "view",
      "type": "function"
    },
    {
      "inputs": [],
      "name": "getRentAmountToPay",
      "outputs": [
        {
          "internalType": "uint256",
          "name": "currentRent",
          "type": "uint256"
        },
        {
          "internalType": "uint256",
          "name": "lateFee",
          "type": "uint256"
        },
        {
          "internalType": "uint256",
          "name": "totalAmount",
          "type": "uint256"
        }
      ],
      "stateMutability": "view",
      "type": "function"
    },
    {
      "inputs": [],
      "name": "gracePeriod",
      "outputs": [
        {
          "internalType": "uint256",
          "name": "",
          "type": "uint256"
        }
      ],
      "stateMutability": "view",
      "type": "function"
    },
    {
      "inputs": [],
      "name": "inflationAdjustmentInterval",
      "outputs": [
        {
          "internalType": "uint256",
          "name": "",
          "type": "uint256"
        }
      ],
      "stateMutability": "view",
      "type": "function"
    },
    {
      "inputs": [],
      "name": "inflationBps",
      "outputs": [
        {
          "internalType": "uint256",
          "name": "",
          "type": "uint256"
        }
      ],
      "stateMutability": "view",
      "type": "function"
    },
    {
      "inputs": [],
      "name": "landlord",
      "outputs": [
        {
          "internalType": "address",
          "name": "",
          "type": "address"
        }
      ],
      "stateMutability": "view",
      "type": "function"
    },
    {
      "inputs": [],
      "name": "landlordApproved",
      "outputs": [
        {
          "internalType": "bool",
          "name": "",
          "type": "bool"
        }
      ],
      "stateMutability": "view",
      "type": "function"
    },
    {
      "inputs": [],
      "name": "landlordCancelled",
      "outputs": [
        {
          "internalType": "bool",
          "name": "",
          "type": "bool"
        }
      ],
      "stateMutability": "view",
      "type": "function"
    },
    {
      "inputs": [],
      "name": "lateFeeBps",
      "outputs": [
        {
          "internalType": "uint256",
          "name": "",
          "type": "uint256"
        }
      ],
      "stateMutability": "view",
      "type": "function"
    },
    {
      "inputs": [],
      "name": "payRent",
      "outputs": [],
      "stateMutability": "nonpayable",
      "type": "function"
    },
    {
      "inputs": [],
      "name": "paymentPeriod",
      "outputs": [
        {
          "internalType": "uint256",
          "name": "",
          "type": "uint256"
        }
      ],
      "stateMutability": "view",
      "type": "function"
    },
    {
      "inputs": [],
      "name": "propertyId",
      "outputs": [
        {
          "internalType": "uint256",
          "name": "",
          "type": "uint256"
        }
      ],
      "stateMutability": "view",
      "type": "function"
    },
    {
      "inputs": [],
      "name": "propertyNFT",
      "outputs": [
        {
          "internalType": "address",
          "name": "",
          "type": "address"
        }
      ],
      "stateMutability": "view",
      "type": "function"
    },
    {
      "inputs": [],
      "name": "releaseDeposit",
      "outputs": [],
      "stateMutability": "nonpayable",
      "type": "function"
    },
    {
      "inputs": [],
      "name": "rentPaidUntil",
      "outputs": [
        {
          "internalType": "uint256",
          "name": "",
          "type": "uint256"
        }
      ],
      "stateMutability": "view",
      "type": "function"
    },
    {
      "inputs": [],
      "name": "rentalNFT",
      "outputs": [
        {
          "internalType": "address",
          "name": "",
          "type": "address"
        }
      ],
      "stateMutability": "view",
      "type": "function"
    },
    {
      "inputs": [],
      "name": "securityDeposit",
      "outputs": [
        {
          "internalType": "uint256",
          "name": "",
          "type": "uint256"
        }
      ],
      "stateMutability": "view",
      "type": "function"
    },
    {
      "inputs": [],
      "name": "startTime",
      "outputs": [
        {
          "internalType": "uint256",
          "name": "",
          "type": "uint256"
        }
      ],
      "stateMutability": "view",
      "type": "function"
    },
    {
      "inputs": [],
      "name": "status",
      "outputs": [
        {
          "internalType": "enum IRentalAgreement.AgreementStatus",
          "name": "",
          "type": "uint8"
        }
      ],
      "stateMutability": "view",
      "type": "function"
    },
    {
      "inputs": [],
      "name": "tenant",
      "outputs": [
        {
          "internalType": "address",
          "name": "",
          "type": "address"
        }
      ],
      "stateMutability": "view",
      "type": "function"
    },
    {
      "inputs": [],
      "name": "tenantApproved",
      "outputs": [
        {
          "internalType": "bool",
          "name": "",
          "type": "bool"
        }
      ],
      "stateMutability": "view",
      "type": "function"
    },
    {
      "inputs": [],
      "name": "tenantCancelled",
      "outputs": [
        {
          "internalType": "bool",
          "name": "",
          "type": "bool"
        }
      ],
      "stateMutability": "view",
      "type": "function"
    },
    {
      "inputs": [],
      "name": "usdcToken",
      "outputs": [
        {
          "internalType": "address",
          "name": "",
          "type": "address"
        }
      ],
      "stateMutability": "view",
      "type": "function"
    },
    {
      "inputs": [],
      "name": "withdrawRent",
      "outputs": [],
      "stateMutability": "nonpayable",
      "type": "function"
    }
  ],
  "bytecode": "0x34620002f75762001e7238819003610240601f8201601f19168101906001600160401b03821190821017620002fb576101c09282916040526102403912620002f7576200004e6102406200030f565b6102605190620000606102806200030f565b6200006d6102a06200030f565b6200007a6102c06200030f565b6102e05161030051610320516103405161036051610380516103a0516103c0516103e05160017f9b779b17422d0df92223018b32b4d1fa46e071723d6817e2486d003becc55f005560809c909c5260a09c909c5260c09990995260e0979097525f80546001600160a01b0319166001600160a01b039097169690961786553361010052610120949094526101409290925261016052610180526101a0526101c0919091526102209182526101e09384526102009283526003805461ffff60201b19166501000000000017905560405192907f530edae614f6252e765864083e1afd7de738c85f7c9c3aa08c3be062f1be87309080a1611b4d9384620003258539608051848181610ed80152611967015260a0518481816101d80152818161052c01528181610a12015281816111c3015281816116200152611933015260c0518481816103c10152818161043c01528181610597015281816106d9015281816107e601528181610de80152818161106e01526112a9015260e0518481816103e30152818161080701528181610b4601528181610d63015281816110900152818161138301526114290152610100518461063b01526101205184818161151401526117f001526101405184818161039e01528181610bab01528181610cef01528181610f5a0152818161104b01526113060152610160518481816106a101526117b6015261018051848181610e78015261185f01526101a0518481816108d401528181610961015261181d01526101c0518481816107b6015281816114700152611768015251838181610744015281816111f1015281816114ab0152611575015251828181610f1f01526118ea015251818181610aee015261178f0152f35b5f80fd5b634e487b7160e01b5f52604160045260245ffd5b51906001600160a01b0382168203620002f75756fe6080604081815260049182361015610015575f80fd5b5f925f3560e01c918263043798a1146115375750816304a2286a146114fc5781630f149cce146114ce5781630fb5a6b41461149357816310b0624a1461145857816311eac8551461141457816319dec62a146110ea5781631e9810e914610fbf578163200d2ed214610f7d578163220e5ab314610f4257816329dcb0cf14610f0757816337f7683814610ec357816349c2beae14610e9b5781634b749d6e14610e6057816361f357d914610c695781636322182e14610b115781636b4c9f4d14610ad657816378e9792514610ab757816383708db914610a905781638a7a2d831461092657816394f578e2146108f7578163a06db7dc146108bc578163a709c4fe14610708578163adf07791146106c4578163b70b6b2614610689578163bda099fe1461066a578163c45a015514610626578163cf6ad8761461029057508063d43f28fd14610271578063dc1997ea14610244578063dcd317d41461021e578063e3485485146101fb578063ee7a3b8e146101c15763f8f0d72114610198575f80fd5b346101bd57816003193601126101bd5760209060ff60035460101c1690519015158152f35b5080fd5b50346101bd57816003193601126101bd57602090517f00000000000000000000000000000000000000000000000000000000000000008152f35b50346101bd57816003193601126101bd5760209060ff6003541690519015158152f35b50346101bd57816003193601126101bd5760209060ff60035460181c1690519015158152f35b50346101bd57816003193601126101bd57602090610260611924565b90516001600160a01b039091168152f35b823461028d578060031936011261028d5761028a61188c565b80f35b80fd5b9050346106225782600319360112610622576102aa6119e0565b600391825460ff8160281c1660078110158061060f57600182148015610603575b1561046457506001600160a01b039291508290506102e7611924565b1633141580610438575b6104295783549260ff6504000000000065ff00000000001986161780875560201c1690808210156104165750600114610361575b505050507e9e14b4e6c0626affef44c92ec47bc57df5dd6fc94b5abc5f6b9e8ada44edde8180a15b60015f80516020611af88339815191525580f35b7f773dca2cd80b68d588b1cc29eab9cec5aa03d1cbff2663e2fa8f4c361869fd7a936504020000000060209465ffff0000000019161790556104087f000000000000000000000000000000000000000000000000000000000000000080937f0000000000000000000000000000000000000000000000000000000000000000907f000000000000000000000000000000000000000000000000000000000000000016611a98565b51908152a15f808080610325565b634e487b7160e01b875260219052602486fd5b51635c427cd960e01b81529050fd5b50817f0000000000000000000000000000000000000000000000000000000000000000163314156102f1565b959491956105f0576002036105e2576001600160a01b039081610485611924565b1633145f14610594578495506201000062ff0000198254161781555b805460ff8160101c1680610587575b6104c0575b50505050505061034d565b60ff60281b191665040000000000179055835416918261050c575b505050807e9e14b4e6c0626affef44c92ec47bc57df5dd6fc94b5abc5f6b9e8ada44edde91a1805f808080806104b5565b823b156105825783926024849284519586938492638f88708b60e01b84527f0000000000000000000000000000000000000000000000000000000000000000908401525af19081156105795750610565575b80806104db565b61056e906116c6565b61028d57805f61055e565b513d84823e3d90fd5b505050fd5b5060ff8160181c166104b0565b337f00000000000000000000000000000000000000000000000000000000000000008316036105d3576301000000859663ff00000019161781556104a1565b505051635c427cd960e01b8152fd5b505163baf3f0f760e01b8152fd5b634e487b7160e01b855260218452602485fd5b50505f600682146102cb565b634e487b7160e01b875260218552602487fd5b8280fd5b5050346101bd57816003193601126101bd57517f00000000000000000000000000000000000000000000000000000000000000006001600160a01b03168152602090f35b5050346101bd57816003193601126101bd576020906002549051908152f35b5050346101bd57816003193601126101bd57602090517f00000000000000000000000000000000000000000000000000000000000000008152f35b5050346101bd57816003193601126101bd57517f00000000000000000000000000000000000000000000000000000000000000006001600160a01b03168152602090f35b90503461062257826003193601126106225760ff60035460281c1660078110156108a95760020361089b5761073b6119e0565b600154906107697f0000000000000000000000000000000000000000000000000000000000000000836116a5565b421161088d575061083c916107ae7fa62c35dfc0ff11d3713608ebcdc5c5d1952c7702620f2c46c22950f7b70d5797926107a161174e565b9691939092600254611710565b6108346107dc7f0000000000000000000000000000000000000000000000000000000000000000809361171d565b978461085e575b307f00000000000000000000000000000000000000000000000000000000000000007f00000000000000000000000000000000000000000000000000000000000000006001600160a01b0316611a0f565b6002546116a5565b60025582519182526020820152a260015f80516020611af88339815191525580f35b887fb94bfd03b953c94bc25e8e7e5fdb8ee4ff6b7d724351443d6a0a28d1644ee49660208951888152a26107e3565b8251631376a2b160e01b8152fd5b905163baf3f0f760e01b8152fd5b634e487b7160e01b845260218252602484fd5b5050346101bd57816003193601126101bd57602090517f00000000000000000000000000000000000000000000000000000000000000008152f35b5050346101bd57816003193601126101bd5760609061091461174e565b91929081519384526020840152820152f35b8383346101bd57816003193601126101bd5760ff60035460281c166007811015610a7d57600203610a6e576109596119e0565b6109866002547f0000000000000000000000000000000000000000000000000000000000000000906116a5565b421115610a5f576003805460ff60281b1916650500000000001790558154919283926001600160a01b03169190826109f2575b837fd263a4eeed0e6bdbe5b6df181af9caee7e11462d27fbea10603f117bb8553faa8180a160015f80516020611af88339815191525580f35b823b156105825783926024849284519586938492638f88708b60e01b84527f0000000000000000000000000000000000000000000000000000000000000000908401525af19081156105795750610a4b575b80806109b9565b610a54906116c6565b61028d578082610a44565b5163128c61a360e01b81529050fd5b5163baf3f0f760e01b81529050fd5b634e487b7160e01b835260218452602483fd5b5050346101bd57816003193601126101bd5760209060ff60035460081c1690519015158152f35b5050346101bd57816003193601126101bd576020906001549051908152f35b5050346101bd57816003193601126101bd57602090517f00000000000000000000000000000000000000000000000000000000000000008152f35b919050346106225782600319360112610622576001600160a01b0380610b35611924565b163303610c5b57610b446119e0565b7f000000000000000000000000000000000000000000000000000000000000000016918151906370a0823160e01b82523081830152602082602481875afa918215610c51578592610c19575b5060ff60035460201c1681811015610c0657600103610bff577f0000000000000000000000000000000000000000000000000000000000000000925b83831115610bf2578561034d86610be38787611710565b90610bec611924565b90611a98565b516328b9315360e11b8152fd5b8492610bcc565b634e487b7160e01b865260218252602486fd5b9091506020813d602011610c49575b81610c35602093836116ee565b81010312610c455751905f610b90565b8480fd5b3d9150610c28565b83513d87823e3d90fd5b5051636171950360e01b8152fd5b90503461062257816003193601126106225780359060243567ffffffffffffffff91828211610e5c5736602383011215610e5c5781810135928311610e5c573660248484010111610e5c576001600160a01b0380610cc5611924565b163303610e4d57610cd46119e0565b60035460ff8160201c1683811015610e3a57600103610e2a577f0000000000000000000000000000000000000000000000000000000000000000928387118015610e22575b610e14575085938593610d9b7f4dc23442e99196b268e3bd55ad89cc4b0bacbf3bdadbf4a9fd59962df5c56a5499986060989564030000000060249664ff000000001916176003557f00000000000000000000000000000000000000000000000000000000000000001692610d9682610d90611924565b86611a98565b611710565b80610de2575b5050828751978896875280602088015286015201848401378181018301869052601f01601f19168101030190a160015f80516020611af88339815191525580f35b610e0d917f000000000000000000000000000000000000000000000000000000000000000090611a98565b5f80610da1565b875163843ce46b60e01b8152fd5b508615610d19565b865163732e4f3f60e11b81528390fd5b634e487b7160e01b895260218452602489fd5b508451636171950360e01b8152fd5b8580fd5b5050346101bd57816003193601126101bd57602090517f00000000000000000000000000000000000000000000000000000000000000008152f35b5050346101bd57816003193601126101bd57905490516001600160a01b039091168152602090f35b5050346101bd57816003193601126101bd57517f00000000000000000000000000000000000000000000000000000000000000006001600160a01b03168152602090f35b5050346101bd57816003193601126101bd57602090517f00000000000000000000000000000000000000000000000000000000000000008152f35b5050346101bd57816003193601126101bd57602090517f00000000000000000000000000000000000000000000000000000000000000008152f35b8383346101bd57816003193601126101bd5760ff60035460281c169051916007821015610fac57602083838152f35b634e487b7160e01b815260218452602490fd5b919050346106225782600319360112610622576001600160a01b039182610fe4611924565b1633036110dc57610ff36119e0565b6003549060ff8260201c1681811015610c06576001036110ce5750916020916402000000007f773dca2cd80b68d588b1cc29eab9cec5aa03d1cbff2663e2fa8f4c361869fd7a9464ff000000001916176003556110b57f000000000000000000000000000000000000000000000000000000000000000080937f0000000000000000000000000000000000000000000000000000000000000000907f000000000000000000000000000000000000000000000000000000000000000016611a98565b51908152a160015f80516020611af88339815191525580f35b825163732e4f3f60e11b8152fd5b9051636171950360e01b8152fd5b8383346101bd57816003193601126101bd576111046119e0565b61110c61188c565b60039283549360ff8560281c166007811015611401576001036113f2576001600160a01b03908161113b611924565b1633145f146112a757849550600160ff95949519825416178155337ffd2ec26fc10659f7ddc573d97ac5b9db8ac6d392fb6e1714ee0a8e55d27fddaa8580a25b805460ff81168061129a575b6111a1575b8460015f80516020611af88339815191525580f35b650200000000009065ff000000000019161790554260015542600255825416927f00000000000000000000000000000000000000000000000000000000000000009367ffffffffffffffff6112167f0000000000000000000000000000000000000000000000000000000000000000426116a5565b1692813b15610c455760648691868094865197889586946370182b2f60e11b865285015230602485015260448401525af19081156105795750611286575b5050307ff36e7301e74d26abe44c5d6d87d5e227709e126cf5b723b0cab81e74c8bd29c08380a381818180808061118c565b61128f906116c6565b6101bd578183611254565b5060ff8160081c16611187565b7f000000000000000000000000000000000000000000000000000000000000000033838216036113e25761ff001987166101001780835596337f59114ba2f71aadc189c87012820c37a520b425e1fdb6273299f6335c2b15d4478880a27f00000000000000000000000000000000000000000000000000000000000000009788151590816113b6575b50978798979697611344575b50505061117b565b6113a8817fa9ac47103411c64154bc97261f6073245093051a5e16cd72319a39a7771e40519464010000010060209564ff0000ff0019161787553090887f000000000000000000000000000000000000000000000000000000000000000016611a0f565b8751908152a186808061133c565b60ff915060201c1697858910156113cf57971587611330565b634e487b7160e01b885260218652602488fd5b8451635c427cd960e01b81528490fd5b50905163baf3f0f760e01b8152fd5b634e487b7160e01b855260218352602485fd5b5050346101bd57816003193601126101bd57517f00000000000000000000000000000000000000000000000000000000000000006001600160a01b03168152602090f35b5050346101bd57816003193601126101bd57602090517f00000000000000000000000000000000000000000000000000000000000000008152f35b5050346101bd57816003193601126101bd57602090517f00000000000000000000000000000000000000000000000000000000000000008152f35b8383346101bd57816003193601126101bd5760ff60035460201c1690519183821015610fac57602083838152f35b5050346101bd57816003193601126101bd57602090517f00000000000000000000000000000000000000000000000000000000000000008152f35b9092915034611673575f3660031901126116735760ff60035460281c16600781101561169257600203611684575061156d6119e0565b61159a6001547f0000000000000000000000000000000000000000000000000000000000000000906116a5565b4210611677576003805460ff60281b1916650300000000001790555f546001600160a01b03169182611600575b837fa122bdecef02226a553b98f74ce821c164b9496560df756a5e88c7a25d0651388180a160015f80516020611af88339815191525580f35b823b15611673575f926024849284519586938492638f88708b60e01b84527f0000000000000000000000000000000000000000000000000000000000000000908401525af190811561166a5750611659575b80806115c7565b61166391506116c6565b5f80611652565b513d5f823e3d90fd5b5f80fd5b51631376a2b160e01b8152fd5b63baf3f0f760e01b81529050fd5b602184634e487b7160e01b5f525260245ffd5b919082018092116116b257565b634e487b7160e01b5f52601160045260245ffd5b67ffffffffffffffff81116116da57604052565b634e487b7160e01b5f52604160045260245ffd5b90601f8019910116810190811067ffffffffffffffff8211176116da57604052565b919082039182116116b257565b8115611727570490565b634e487b7160e01b5f52601260045260245ffd5b818102929181159184041417156116b257565b6002546117db6117b461178d61176660015485611710565b7f00000000000000000000000000000000000000000000000000000000000000009061171d565b7f00000000000000000000000000000000000000000000000000000000000000009061171d565b7f00000000000000000000000000000000000000000000000000000000000000009061173b565b916127109283018084116116b25761181484917f000000000000000000000000000000000000000000000000000000000000000061173b565b04926118425f937f0000000000000000000000000000000000000000000000000000000000000000906116a5565b4211611857575b5061185482846116a5565b90565b9091506118847f00000000000000000000000000000000000000000000000000000000000000008461173b565b04905f611849565b60035460ff8160281c16600781101561191057600114806118e7575b6118af5750565b60ff60281b191665060000000000176003557f22da757fb8c2089faf08988462783de772e45587b5d991198ee1e1d273c645795f80a1565b507f000000000000000000000000000000000000000000000000000000000000000042116118a8565b634e487b7160e01b5f52602160045260245ffd5b6040516331a9108f60e11b81527f000000000000000000000000000000000000000000000000000000000000000060048201526001600160a01b036020826024817f000000000000000000000000000000000000000000000000000000000000000085165afa9182156119d5575f9261199c57505090565b9091506020813d6020116119cd575b816119b8602093836116ee565b81010312611673575190811681036116735790565b3d91506119ab565b6040513d5f823e3d90fd5b5f80516020611af883398151915260028154146119fd5760029055565b604051633ee5aeb560e01b8152600490fd5b6040516323b872dd60e01b5f9081526001600160a01b03938416600452938316602452604494909452909160209060648180855af160015f5114811615611a79575b836040525f60605215611a6357505050565b635274afe760e01b835216600482015260249150fd5b6001811516611a8f57813b15153d151616611a51565b833d5f823e3d90fd5b60405163a9059cbb60e01b5f9081526001600160a01b039384166004526024949094529260209060448180855af160015f5114811615611ae1575b8360405215611a6357505050565b6001811516611a8f57813b15153d151616611ad356fe9b779b17422d0df92223018b32b4d1fa46e071723d6817e2486d003becc55f00a264697066735822122043ac4d7f129412894bc813ad30d5ecde62c98cecfad1147a9c8c06ba5974808e64736f6c63430008180033",
  "linkReferences": {},
  "deployedLinkReferences": {},
  "immutableReferences": {
    "9513": [
      {
        "length": 32,
        "start": 3800
      },
      {
        "length": 32,
        "start": 6503
      }
    ],
    "9519": [
      {
        "length": 32,
        "start": 472
      },
      {
        "length": 32,
        "start": 1324
      },
      {
        "length": 32,
        "start": 2578
      },
      {
        "length": 32,
        "start": 4547
      },
      {
        "length": 32,
        "start": 5664
      },
      {
        "length": 32,
        "start": 6451
      }
    ],
    "9522": [
      {
        "length": 32,
        "start": 961
      },
      {
        "length": 32,
        "start": 1084
      },
      {
        "length": 32,
        "start": 1431
      },
      {
        "length": 32,
        "start": 1753
      },
      {
        "length": 32,
        "start": 2022
      },
      {
        "length": 32,
        "start": 3560
      },
      {
        "length": 32,
        "start": 4206
      },
      {
        "length": 32,
        "start": 4777
      }
    ],
    "9525": [
      {
        "length": 32,
        "start": 995
      },
      {
        "length": 32,
        "start": 2055
      },
      {
        "length": 32,
        "start": 2886
      },
      {
        "length": 32,
        "start": 3427
      },
      {
        "length": 32,
        "start": 4240
      },
      {
        "length": 32,
        "start": 4995
      },
      {
        "length": 32,
        "start": 5161
      }
    ],
    "9527": [
      {
        "length": 32,
        "start": 1595
      }
    ],
    "9530": [
      {
        "length": 32,
        "start": 5396
      },
      {
        "length": 32,
        "start": 6128
      }
    ],
    "9533": [
      {
        "length": 32,
        "start": 926
      },
      {
        "length": 32,
        "start": 2987
      },
      {
        "length": 32,
        "start": 3311
      },
      {
        "length": 32,
        "start": 3930
      },
      {
        "length": 32,
        "start": 4171
      },
      {
        "length": 32,
        "start": 4870
      }
    ],
    "9536": [
      {
        "length": 32,
        "start": 1697
      },
      {
        "length": 32,
        "start": 6070
      }
    ],
    "9539": [
      {
        "length": 32,
        "start": 3704
      },
      {
        "length": 32,
        "start": 6239
      }
    ],
    "9542": [
      {
        "length": 32,
        "start": 2260
      },
      {
        "length": 32,
        "start": 2401
      },
      {
        "length": 32,
        "start": 6173
      }
    ],
    "9545": [
      {
        "length": 32,
        "start": 1974
      },
      {
        "length": 32,
        "start": 5232
      },
      {
        "length": 32,
        "start": 5992
      }
    ],
    "9548": [
      {
        "length": 32,
        "start": 1860
      },
      {
        "length": 32,
        "start": 4593
      },
      {
        "length": 32,
        "start": 5291
      },
      {
        "length": 32,
        "start": 5493
      }
    ],
    "9551": [
      {
        "length": 32,
        "start": 3871
      },
      {
        "length": 32,
        "start": 6378
      }
    ],
    "9559": [
      {
        "length": 32,
        "start": 2798
      },
      {
        "length": 32,
        "start": 6031
      }
    ]
  },
  "inputSourceName": "project/contracts/RentalAgreement.sol",
  "buildInfoId": "solc-0_8_24-28ca4515485ea78a5ce01a7e01681fee3b74eee8"
}