{
  "_format": "hh3-artifact-1",
  "contractName": "RentalAgreement",
  "sourceName": "contracts/RentalAgreement.sol",
  "abi": [
    {
      "inputs": [
        {
          "internalType": "address",
          "name": "_propertyNFT",
          "type": "address"
        },
        {
          "internalType": "uint256",
          "name": "_propertyId",
          "type": "uint256"
        },
        {
          "internalType": "address",
          "name": "_tenant",
          "type": "address"
        },
        {
          "internalType": "address",
          "name": "_usdcToken",
          "type": "address"
        },
        {
          "internalType": "address",
          "name": "_rentalNFT",
          "type": "address"
        },
        {
          "internalType": "uint256",
          "name": "_baseRent",
          "type": "uint256"
        },
        {
          "internalType": "uint256",
          "name": "_securityDeposit",
          "type": "uint256"
        },
        {
          "internalType": "uint256",
          "name": "_inflationBps",
          "type": "uint256"
        },
        {
          "internalType": "uint256",
          "name": "_lateFeeBps",
          "type": "uint256"
        },
        {
          "internalType": "uint256",
          "name": "_gracePeriod",
          "type": "uint256"
        },
        {
          "internalType": "uint256",
          "name": "_paymentPeriod",
          "type": "uint256"
        },
        {
          "internalType": "uint256",
          "name": "_inflationAdjustmentInterval",
          "type": "uint256"
        },
        {
          "internalType": "uint256",
          "name": "_duration",
          "type": "uint256"
        },
        {
          "internalType": "uint256",
          "name": "_deadline",
          "type": "uint256"
        }
      ],
      "stateMutability": "nonpayable",
      "type": "constructor"
    },
    {
      "inputs": [],
      "name": "AgreementDeadlineExceeded",
      "type": "error"
    },
    {
      "inputs": [],
      "name": "DepositAlreadySettled",
      "type": "error"
    },
    {
      "inputs": [],
      "name": "DepositNotLocked",
      "type": "error"
    },
    {
      "inputs": [],
      "name": "InvalidClaimAmount",
      "type": "error"
    },
    {
      "inputs": [],
      "name": "InvalidState",
      "type": "error"
    },
    {
      "inputs": [],
      "name": "LeaseTermNotEnded",
      "type": "error"
    },
    {
      "inputs": [],
      "name": "NoRentToWithdraw",
      "type": "error"
    },
    {
      "inputs": [],
      "name": "ReentrancyGuardReentrantCall",
      "type": "error"
    },
    {
      "inputs": [],
      "name": "RentNotOverdue",
      "type": "error"
    },
    {
      "inputs": [
        {
          "internalType": "address",
          "name": "token",
          "type": "address"
        }
      ],
      "name": "SafeERC20FailedOperation",
      "type": "error"
    },
    {
      "inputs": [],
      "name": "UnauthorizedCaller",
      "type": "error"
    },
    {
      "inputs": [],
      "name": "UnauthorizedLandlord",
      "type": "error"
    },
    {
      "inputs": [],
      "name": "UnauthorizedTenant",
      "type": "error"
    },
    {
      "anonymous": false,
      "inputs": [
        {
          "indexed": true,
          "internalType": "address",
          "name": "agreementAddress",
          "type": "address"
        },
        {
          "indexed": true,
          "internalType": "uint256",
          "name": "propertyId",
          "type": "uint256"
        }
      ],
      "name": "AgreementActivated",
      "type": "event"
    },
    {
      "anonymous": false,
      "inputs": [],
      "name": "AgreementCancelled",
      "type": "event"
    },
    {
      "anonymous": false,
      "inputs": [],
      "name": "AgreementCompleted",
      "type": "event"
    },
    {
      "anonymous": false,
      "inputs": [],
      "name": "AgreementDefaulted",
      "type": "event"
    },
    {
      "anonymous": false,
      "inputs": [],
      "name": "AgreementExpired",
      "type": "event"
    },
    {
      "anonymous": false,
      "inputs": [],
      "name": "AgreementPending",
      "type": "event"
    },
    {
      "anonymous": false,
      "inputs": [
        {
          "indexed": false,
          "internalType": "uint256",
          "name": "amount",
          "type": "uint256"
        },
        {
          "indexed": false,
          "internalType": "string",
          "name": "reason",
          "type": "string"
        }
      ],
      "name": "DepositClaimed",
      "type": "event"
    },
    {
      "anonymous": false,
      "inputs": [
        {
          "indexed": false,
          "internalType": "uint256",
          "name": "amount",
          "type": "uint256"
        }
      ],
      "name": "DepositLocked",
      "type": "event"
    },
    {
      "anonymous": false,
      "inputs": [
        {
          "indexed": false,
          "internalType": "uint256",
          "name": "amount",
          "type": "uint256"
        }
      ],
      "name": "DepositReleased",
      "type": "event"
    },
    {
      "anonymous": false,
      "inputs": [
        {
          "indexed": true,
          "internalType": "address",
          "name": "landlord",
          "type": "address"
        }
      ],
      "name": "LandlordApproved",
      "type": "event"
    },
    {
      "anonymous": false,
      "inputs": [
        {
          "indexed": true,
          "internalType": "uint256",
          "name": "monthIndex",
          "type": "uint256"
        },
        {
          "indexed": false,
          "internalType": "uint256",
          "name": "amount",
          "type": "uint256"
        }
      ],
      "name": "LateFeeApplied",
      "type": "event"
    },
    {
      "anonymous": false,
      "inputs": [
        {
          "indexed": true,
          "internalType": "uint256",
          "name": "monthIndex",
          "type": "uint256"
        },
        {
          "indexed": false,
          "internalType": "uint256",
          "name": "amount",
          "type": "uint256"
        },
        {
          "indexed": false,
          "internalType": "uint256",
          "name": "lateFeeApplied",
          "type": "uint256"
        }
      ],
      "name": "RentPaid",
      "type": "event"
    },
    {
      "anonymous": false,
      "inputs": [
        {
          "indexed": true,
          "internalType": "address",
          "name": "tenant",
          "type": "address"
        }
      ],
      "name": "TenantApproved",
      "type": "event"
    },
    {
      "inputs": [],
      "name": "approveAgreement",
      "outputs": [],
      "stateMutability": "nonpayable",
      "type": "function"
    },
    {
      "inputs": [],
      "name": "baseRent",
      "outputs": [
        {
          "internalType": "uint256",
          "name": "",
          "type": "uint256"
        }
      ],
      "stateMutability": "view",
      "type": "function"
    },
    {
      "inputs": [],
      "name": "cancelAgreement",
      "outputs": [],
      "stateMutability": "nonpayable",
      "type": "function"
    },
    {
      "inputs": [],
      "name": "checkExpiration",
      "outputs": [],
      "stateMutability": "nonpayable",
      "type": "function"
    },
    {
      "inputs": [
        {
          "internalType": "uint256",
          "name": "amount",
          "type": "uint256"
        },
        {
          "internalType": "string",
          "name": "reason",
          "type": "string"
        }
      ],
      "name": "claimDeposit",
      "outputs": [],
      "stateMutability": "nonpayable",
      "type": "function"
    },
    {
      "inputs": [],
      "name": "completeAgreement",
      "outputs": [],
      "stateMutability": "nonpayable",
      "type": "function"
    },
    {
      "inputs": [],
      "name": "deadline",
      "outputs": [
        {
          "internalType": "uint256",
          "name": "",
          "type": "uint256"
        }
      ],
      "stateMutability": "view",
      "type": "function"
    },
    {
      "inputs": [],
      "name": "declareDefault",
      "outputs": [],
      "stateMutability": "nonpayable",
      "type": "function"
    },
    {
      "inputs": [],
      "name": "depositStatus",
      "outputs": [
        {
          "internalType": "enum IRentalAgreement.DepositStatus",
          "name": "",
          "type": "uint8"
        }
      ],
      "stateMutability": "view",
      "type": "function"
    },
    {
      "inputs": [],
      "name": "duration",
      "outputs": [
        {
          "internalType": "uint256",
          "name": "",
          "type": "uint256"
        }
      ],
      "stateMutability": "view",
      "type": "function"
    },
    {
      "inputs": [],
      "name": "factory",
      "outputs": [
        {
          "internalType": "address",
          "name": "",
          "type": "address"
        }
      ],
      "stateMutability": "view",
      "type": "function"
    },
    {
      "inputs": [],
      "name": "getAgreementDetails",
      "outputs": [
        {
          "components": [
            {
              "internalType": "uint256",
              "name": "propertyId",
              "type": "uint256"
            },
            {
              "internalType": "address",
              "name": "tenant",
              "type": "address"
            },
            {
              "internalType": "address",
              "name": "landlord",
              "type": "address"
            },
            {
              "internalType": "uint256",
              "name": "baseRent",
              "type": "uint256"
            },
            {
              "internalType": "uint256",
              "name": "rentPaidUntil",
              "type": "uint256"
            },
            {
              "internalType": "enum IRentalAgreement.AgreementStatus",
              "name": "status",
              "type": "uint8"
            },
            {
              "internalType": "uint256",
              "name": "startTime",
              "type": "uint256"
            },
            {
              "internalType": "uint256",
              "name": "paymentPeriod",
              "type": "uint256"
            },
            {
              "internalType": "uint256",
              "name": "securityDeposit",
              "type": "uint256"
            },
            {
              "internalType": "uint256",
              "name": "inflationBps",
              "type": "uint256"
            },
            {
              "internalType": "uint256",
              "name": "lateFeeBps",
              "type": "uint256"
            },
            {
              "internalType": "uint256",
              "name": "gracePeriod",
              "type": "uint256"
            },
            {
              "internalType": "uint256",
              "name": "duration",
              "type": "uint256"
            },
            {
              "internalType": "uint256",
              "name": "deadline",
              "type": "uint256"
            },
            {
              "internalType": "bool",
              "name": "landlordApproved",
              "type": "bool"
            },
            {
              "internalType": "bool",
              "name": "tenantApproved",
              "type": "bool"
            },
            {
              "internalType": "bool",
              "name": "landlordCancelled",
              "type": "bool"
            },
            {
              "internalType": "bool",
              "name": "tenantCancelled",
              "type": "bool"
            }
          ],
          "internalType": "struct IRentalAgreement.AgreementDetails",
          "name": "",
          "type": "tuple"
        }
      ],
      "stateMutability": "view",
      "type": "function"
    },
    {
      "inputs": [],
      "name": "getRentAmountToPay",
      "outputs": [
        {
          "internalType": "uint256",
          "name": "currentRent",
          "type": "uint256"
        },
        {
          "internalType": "uint256",
          "name": "lateFee",
          "type": "uint256"
        },
        {
          "internalType": "uint256",
          "name": "totalAmount",
          "type": "uint256"
        }
      ],
      "stateMutability": "view",
      "type": "function"
    },
    {
      "inputs": [],
      "name": "gracePeriod",
      "outputs": [
        {
          "internalType": "uint256",
          "name": "",
          "type": "uint256"
        }
      ],
      "stateMutability": "view",
      "type": "function"
    },
    {
      "inputs": [],
      "name": "inflationAdjustmentInterval",
      "outputs": [
        {
          "internalType": "uint256",
          "name": "",
          "type": "uint256"
        }
      ],
      "stateMutability": "view",
      "type": "function"
    },
    {
      "inputs": [],
      "name": "inflationBps",
      "outputs": [
        {
          "internalType": "uint256",
          "name": "",
          "type": "uint256"
        }
      ],
      "stateMutability": "view",
      "type": "function"
    },
    {
      "inputs": [],
      "name": "landlord",
      "outputs": [
        {
          "internalType": "address",
          "name": "",
          "type": "address"
        }
      ],
      "stateMutability": "view",
      "type": "function"
    },
    {
      "inputs": [],
      "name": "landlordApproved",
      "outputs": [
        {
          "internalType": "bool",
          "name": "",
          "type": "bool"
        }
      ],
      "stateMutability": "view",
      "type": "function"
    },
    {
      "inputs": [],
      "name": "landlordCancelled",
      "outputs": [
        {
          "internalType": "bool",
          "name": "",
          "type": "bool"
        }
      ],
      "stateMutability": "view",
      "type": "function"
    },
    {
      "inputs": [],
      "name": "lateFeeBps",
      "outputs": [
        {
          "internalType": "uint256",
          "name": "",
          "type": "uint256"
        }
      ],
      "stateMutability": "view",
      "type": "function"
    },
    {
      "inputs": [],
      "name": "payRent",
      "outputs": [],
      "stateMutability": "nonpayable",
      "type": "function"
    },
    {
      "inputs": [],
      "name": "paymentPeriod",
      "outputs": [
        {
          "internalType": "uint256",
          "name": "",
          "type": "uint256"
        }
      ],
      "stateMutability": "view",
      "type": "function"
    },
    {
      "inputs": [],
      "name": "propertyId",
      "outputs": [
        {
          "internalType": "uint256",
          "name": "",
          "type": "uint256"
        }
      ],
      "stateMutability": "view",
      "type": "function"
    },
    {
      "inputs": [],
      "name": "propertyNFT",
      "outputs": [
        {
          "internalType": "address",
          "name": "",
          "type": "address"
        }
      ],
      "stateMutability": "view",
      "type": "function"
    },
    {
      "inputs": [],
      "name": "releaseDeposit",
      "outputs": [],
      "stateMutability": "nonpayable",
      "type": "function"
    },
    {
      "inputs": [],
      "name": "rentPaidUntil",
      "outputs": [
        {
          "internalType": "uint256",
          "name": "",
          "type": "uint256"
        }
      ],
      "stateMutability": "view",
      "type": "function"
    },
    {
      "inputs": [],
      "name": "rentalNFT",
      "outputs": [
        {
          "internalType": "address",
          "name": "",
          "type": "address"
        }
      ],
      "stateMutability": "view",
      "type": "function"
    },
    {
      "inputs": [],
      "name": "securityDeposit",
      "outputs": [
        {
          "internalType": "uint256",
          "name": "",
          "type": "uint256"
        }
      ],
      "stateMutability": "view",
      "type": "function"
    },
    {
      "inputs": [],
      "name": "startTime",
      "outputs": [
        {
          "internalType": "uint256",
          "name": "",
          "type": "uint256"
        }
      ],
      "stateMutability": "view",
      "type": "function"
    },
    {
      "inputs": [],
      "name": "status",
      "outputs": [
        {
          "internalType": "enum IRentalAgreement.AgreementStatus",
          "name": "",
          "type": "uint8"
        }
      ],
      "stateMutability": "view",
      "type": "function"
    },
    {
      "inputs": [],
      "name": "tenant",
      "outputs": [
        {
          "internalType": "address",
          "name": "",
          "type": "address"
        }
      ],
      "stateMutability": "view",
      "type": "function"
    },
    {
      "inputs": [],
      "name": "tenantApproved",
      "outputs": [
        {
          "internalType": "bool",
          "name": "",
          "type": "bool"
        }
      ],
      "stateMutability": "view",
      "type": "function"
    },
    {
      "inputs": [],
      "name": "tenantCancelled",
      "outputs": [
        {
          "internalType": "bool",
          "name": "",
          "type": "bool"
        }
      ],
      "stateMutability": "view",
      "type": "function"
    },
    {
      "inputs": [],
      "name": "usdcToken",
      "outputs": [
        {
          "internalType": "address",
          "name": "",
          "type": "address"
        }
      ],
      "stateMutability": "view",
      "type": "function"
    },
    {
      "inputs": [],
      "name": "withdrawRent",
      "outputs": [],
      "stateMutability": "nonpayable",
      "type": "function"
    }
  ],
  "bytecode": "0x346200033d576200215a38819003610240601f8201601f19168101906001600160401b0382119082101762000341576101c092829160405261024039126200033d576200004e61024062000355565b61026051906200006061028062000355565b6200006d6102a062000355565b6200007a6102c062000355565b6102e05161030051610320516103405161036051610380516103a0516103c0516103e05160017f9b779b17422d0df92223018b32b4d1fa46e071723d6817e2486d003becc55f005560809c909c5260a09c909c5260c09990995260e0979097525f80546001600160a01b0319166001600160a01b039097169690961786553361010052610120949094526101409290925261016052610180526101a0526101c0919091526102209182526101e09384526102009283526003805461ffff60201b19166501000000000017905560405192907f530edae614f6252e765864083e1afd7de738c85f7c9c3aa08c3be062f1be87309080a1611def93846200036b85396080518481816111f50152611c14015260a0518481816101df015281816105240152818161074601528181610d6b015281816114a3015281816118c80152611be0015260c0518481816103c001528181610440015281816105890152818161077101528181610a4401528181610b4f0152818161110d0152818161136f015261158a015260e0518481816103e201528181610b7001528181610e8801528181611081015281816113910152818161165e01526116c00152610100518461060d01526101205184818161079f015281816117c00152611ab101526101405184818161039d0152818161081801528181610edb01528181611017015281816112770152818161134c01526115e70152610160518481816106720152818161083f0152611a77015261018051848181610866015281816111950152611b2001526101a05184818161088d01528181610c3401528181610cbf0152611ade01526101c0518481816107f201528181610b1f015281816117070152611a290152518381816108b401528181610aad015281816114d101528181611742015261181f0152518281816108db0152818161123c0152611bab015251818181610e1e0152611a500152f35b5f80fd5b634e487b7160e01b5f52604160045260245ffd5b51906001600160a01b03821682036200033d5756fe6080806040526004361015610012575f80fd5b5f905f3560e01c908163043798a1146117e35750806304a2286a146117a85780630f149cce146117655780630fb5a6b41461172a57806310b0624a146116ef57806311eac855146116aa57806319dec62a146113d15780631e9810e9146112c5578063200d2ed21461129a578063220e5ab31461125f57806329dcb0cf1461122457806337f76838146111df57806349c2beae146111b85780634b749d6e1461117d57806361f357d914610f8e5780636322182e14610e415780636b4c9f4d14610e0657806378e9792514610de857806383708db914610dc25780638a7a2d8314610c8557806394f578e214610c57578063a06db7dc14610c1c578063a709c4fe14610a73578063adf0779114610a2e578063b4bd778414610695578063b70b6b261461065a578063bda099fe1461063c578063c45a0155146105f7578063cf6ad87614610294578063d43f28fd14610278578063dc1997ea1461024b578063dcd317d414610225578063e348548514610202578063ee7a3b8e146101c75763f8f0d7211461019f575f80fd5b346101c457806003193601126101c457602060ff60035460101c166040519015158152f35b80fd5b50346101c457806003193601126101c45760206040517f00000000000000000000000000000000000000000000000000000000000000008152f35b50346101c457806003193601126101c457602060ff600354166040519015158152f35b50346101c457806003193601126101c457602060ff60035460181c166040519015158152f35b50346101c457806003193601126101c4576020610266611bd1565b6040516001600160a01b039091168152f35b50346101c457806003193601126101c457610291611b4d565b80f35b50346101c457806003193601126101c4576102ad611c82565b6003805460ff8160281c16600781101580610416576001821480156105eb575b1561046857506001600160a01b0391508190506102e8611bd1565b163314158061043c575b61042a5781549060ff6504000000000065ff00000000001984161780855560201c16600481101561041657600114610360575b5050507e9e14b4e6c0626affef44c92ec47bc57df5dd6fc94b5abc5f6b9e8ada44edde8180a15b60015f80516020611d9a8339815191525580f35b7f773dca2cd80b68d588b1cc29eab9cec5aa03d1cbff2663e2fa8f4c361869fd7a926504020000000060209365ffff0000000019161790556104077f000000000000000000000000000000000000000000000000000000000000000080927f0000000000000000000000000000000000000000000000000000000000000000907f000000000000000000000000000000000000000000000000000000000000000016611d3a565b604051908152a15f8080610325565b634e487b7160e01b85526021600452602485fd5b604051635c427cd960e01b8152600490fd5b50807f0000000000000000000000000000000000000000000000000000000000000000163314156102f2565b6105d7576002036105c55782916001600160a01b039182610487611bd1565b1633145f146105845750805462ff00001916620100001781555b805460ff8160101c1680610577575b6104be575b5050505061034c565b60ff60281b19166504000000000017905581541680610505575b50807e9e14b4e6c0626affef44c92ec47bc57df5dd6fc94b5abc5f6b9e8ada44edde91a1805f80806104b5565b803b1561057457818091602460405180948193638f88708b60e01b83527f000000000000000000000000000000000000000000000000000000000000000060048401525af1801561056957156104d85761055e9061196a565b6101c457805f6104d8565b6040513d84823e3d90fd5b50fd5b5060ff8160181c166104b0565b9250337f000000000000000000000000000000000000000000000000000000000000000083160361042a576301000000849363ff00000019161781556104a1565b60405163baf3f0f760e01b8152600490fd5b634e487b7160e01b84526021600452602484fd5b50505f600682146102cd565b50346101c457806003193601126101c4576040517f00000000000000000000000000000000000000000000000000000000000000006001600160a01b03168152602090f35b50346101c457806003193601126101c4576020600254604051908152f35b50346101c457806003193601126101c45760206040517f00000000000000000000000000000000000000000000000000000000000000008152f35b50346101c457806003193601126101c457806102206040516106b681611992565b8281528260208201528260408201528260608201528260808201528260a08201528260c08201528260e08201528261010082015282610120820152826101408201528261016082015282610180820152826101a0820152826101c0820152826101e082015282610200820152015261072c611bd1565b60025460035492600154916040519361074485611992565b7f000000000000000000000000000000000000000000000000000000000000000085526001600160a01b037f0000000000000000000000000000000000000000000000000000000000000000811660208701521660408501527f000000000000000000000000000000000000000000000000000000000000000060608501526080840152600760ff602886901c161015610a1a57508260ff91826102409560281c1660a085015260c08401527f000000000000000000000000000000000000000000000000000000000000000060e08401527f00000000000000000000000000000000000000000000000000000000000000006101008401527f00000000000000000000000000000000000000000000000000000000000000006101208401527f00000000000000000000000000000000000000000000000000000000000000006101408401527f00000000000000000000000000000000000000000000000000000000000000006101608401527f00000000000000000000000000000000000000000000000000000000000000006101808401527f00000000000000000000000000000000000000000000000000000000000000006101a084015281811615156101c0840152818160081c1615156101e0840152818160101c16151561020084015260181c161515610220820152610220604051918051835260018060a01b03602082015116602084015260018060a01b036040820151166040840152606081015160608401526080810151608084015261098860a082015160a085019061193c565b60c081015160c084015260e081015160e08401526101008101516101008401526101208101516101208401526101408101516101408401526101608101516101608401526101808101516101808401526101a08101516101a08401526101c081015115156101c08401526101e081015115156101e0840152610200810151151561020084015201511515610220820152f35b634e487b7160e01b81526021600452602490fd5b50346101c457806003193601126101c4576040517f00000000000000000000000000000000000000000000000000000000000000006001600160a01b03168152602090f35b50346101c457806003193601126101c45760ff60035460281c166007811015610c08576002036105c557610aa5611c82565b600154610ad27f000000000000000000000000000000000000000000000000000000000000000082611949565b4211610bf6577fa62c35dfc0ff11d3713608ebcdc5c5d1952c7702620f2c46c22950f7b70d57976040610b17610ba593610b0a611a0f565b96919390926002546119d1565b610b9d610b457f000000000000000000000000000000000000000000000000000000000000000080936119de565b9784610bc7575b307f00000000000000000000000000000000000000000000000000000000000000007f00000000000000000000000000000000000000000000000000000000000000006001600160a01b0316611cb1565b600254611949565b60025582519182526020820152a260015f80516020611d9a8339815191525580f35b887fb94bfd03b953c94bc25e8e7e5fdb8ee4ff6b7d724351443d6a0a28d1644ee49660208951888152a2610b4c565b604051631376a2b160e01b8152600490fd5b634e487b7160e01b82526021600452602482fd5b50346101c457806003193601126101c45760206040517f00000000000000000000000000000000000000000000000000000000000000008152f35b50346101c457806003193601126101c4576060610c72611a0f565b9060405192835260208301526040820152f35b50346101c457806003193601126101c45760ff60035460281c166007811015610c08576002036105c557610cb7611c82565b610ce46002547f000000000000000000000000000000000000000000000000000000000000000090611949565b421115610db0576003805460ff60281b191665050000000000179055805481906001600160a01b031680610d4c575b50807fd263a4eeed0e6bdbe5b6df181af9caee7e11462d27fbea10603f117bb8553faa91a160015f80516020611d9a8339815191525580f35b803b1561057457818091602460405180948193638f88708b60e01b83527f000000000000000000000000000000000000000000000000000000000000000060048401525af180156105695715610d1357610da59061196a565b6101c457805f610d13565b60405163128c61a360e01b8152600490fd5b50346101c457806003193601126101c457602060ff60035460081c166040519015158152f35b50346101c457806003193601126101c4576020600154604051908152f35b50346101c457806003193601126101c45760206040517f00000000000000000000000000000000000000000000000000000000000000008152f35b50346101c457806003193601126101c4576001600160a01b0380610e63611bd1565b163303610f7c57610e72611c82565b6040516370a0823160e01b8152306004820152907f000000000000000000000000000000000000000000000000000000000000000016602082602481845afa918215610f71578392610f39575b5060ff60035460201c1660048110156105d757600103610f32577f0000000000000000000000000000000000000000000000000000000000000000915b82811115610f205761034c92610f11916119d1565b90610f1a611bd1565b90611d3a565b6040516328b9315360e11b8152600490fd5b8291610efc565b9091506020813d602011610f69575b81610f55602093836119af565b81010312610f655751905f610ebf565b8280fd5b3d9150610f48565b6040513d85823e3d90fd5b604051636171950360e01b8152600490fd5b50346101c45760403660031901126101c45760043560243567ffffffffffffffff8082116111795736602383011215611179578160040135908111611179573660248284010111611179576001600160a01b039283610feb611bd1565b163303610f7c57610ffa611c82565b6003549160ff8360201c16600481101561116557600103611153577f0000000000000000000000000000000000000000000000000000000000000000808311801561114b575b611139576110b9837f4dc23442e99196b268e3bd55ad89cc4b0bacbf3bdadbf4a9fd59962df5c56a549764030000000060609764ff000000001916176003557f000000000000000000000000000000000000000000000000000000000000000016926110b4826110ae611bd1565b86611d3a565b6119d1565b80611107575b505080602460405195869485526040602086015282604086015201848401378181018301869052601f01601f19168101030190a160015f80516020611d9a8339815191525580f35b611132917f000000000000000000000000000000000000000000000000000000000000000090611d3a565b5f806110bf565b60405163843ce46b60e01b8152600490fd5b508215611040565b60405163732e4f3f60e11b8152600490fd5b634e487b7160e01b87526021600452602487fd5b8380fd5b50346101c457806003193601126101c45760206040517f00000000000000000000000000000000000000000000000000000000000000008152f35b50346101c457806003193601126101c457546040516001600160a01b039091168152602090f35b50346101c457806003193601126101c4576040517f00000000000000000000000000000000000000000000000000000000000000006001600160a01b03168152602090f35b50346101c457806003193601126101c45760206040517f00000000000000000000000000000000000000000000000000000000000000008152f35b50346101c457806003193601126101c45760206040517f00000000000000000000000000000000000000000000000000000000000000008152f35b50346101c457806003193601126101c457602060ff60035460281c166112c3604051809261193c565bf35b50346101c457806003193601126101c4576001600160a01b03806112e7611bd1565b163303610f7c576112f6611c82565b60035460ff8160201c1660048110156105d757600103611153577f773dca2cd80b68d588b1cc29eab9cec5aa03d1cbff2663e2fa8f4c361869fd7a9164020000000060209264ff000000001916176003556113b67f000000000000000000000000000000000000000000000000000000000000000080927f0000000000000000000000000000000000000000000000000000000000000000907f000000000000000000000000000000000000000000000000000000000000000016611d3a565b604051908152a160015f80516020611d9a8339815191525580f35b50346101c457806003193601126101c4576113ea611c82565b6113f2611b4d565b600380549060ff8260281c1660078110156105d7576001036105c5576001600160a01b039182611420611bd1565b1633145f146115885750805460ff19166001178155337ffd2ec26fc10659f7ddc573d97ac5b9db8ac6d392fb6e1714ee0a8e55d27fddaa8480a25b805460ff81168061157b575b611481575b8360015f80516020611d9a8339815191525580f35b650200000000009065ff000000000019161790554260015542600255815416817f00000000000000000000000000000000000000000000000000000000000000009167ffffffffffffffff6114f67f000000000000000000000000000000000000000000000000000000000000000042611949565b16813b15610f655782916064839260405194859384926370182b2f60e11b845289600485015230602485015260448401525af1801561056957611563575b5050307ff36e7301e74d26abe44c5d6d87d5e227709e126cf5b723b0cab81e74c8bd29c08380a35f808061146c565b61156c9061196a565b61157757815f611534565b5080fd5b5060ff8160081c16611467565b7f000000000000000000000000000000000000000000000000000000000000000090338483160361042a5761ff0019811661010017808455337f59114ba2f71aadc189c87012820c37a520b425e1fdb6273299f6335c2b15d4478780a27f0000000000000000000000000000000000000000000000000000000000000000908115159081611692575b5061161f575b50505061145b565b611683817fa9ac47103411c64154bc97261f6073245093051a5e16cd72319a39a7771e40519464010000010060209564ff0000ff0019161787553090887f000000000000000000000000000000000000000000000000000000000000000016611cb1565b604051908152a15f8080611617565b60ff915060201c16600481101561116557155f611611565b50346101c457806003193601126101c4576040517f00000000000000000000000000000000000000000000000000000000000000006001600160a01b03168152602090f35b50346101c457806003193601126101c45760206040517f00000000000000000000000000000000000000000000000000000000000000008152f35b50346101c457806003193601126101c45760206040517f00000000000000000000000000000000000000000000000000000000000000008152f35b50346101c457806003193601126101c45760ff60035460201c1660405190600481101561179457602092508152f35b634e487b7160e01b83526021600452602483fd5b50346101c457806003193601126101c45760206040517f00000000000000000000000000000000000000000000000000000000000000008152f35b905034611915575f3660031901126119155760ff60035460281c166007811015611928576002036119195750611817611c82565b6118446001547f000000000000000000000000000000000000000000000000000000000000000090611949565b4210610bf6576003805460ff60281b1916650300000000001790555f546001600160a01b0316806118a9575b507fa122bdecef02226a553b98f74ce821c164b9496560df756a5e88c7a25d0651388180a160015f80516020611d9a8339815191525580f35b803b15611915575f8091602460405180948193638f88708b60e01b83527f000000000000000000000000000000000000000000000000000000000000000060048401525af1801561190a571561187057611903915061196a565b5f80611870565b6040513d5f823e3d90fd5b5f80fd5b63baf3f0f760e01b8152600490fd5b634e487b7160e01b5f52602160045260245ffd5b9060078210156119285752565b9190820180921161195657565b634e487b7160e01b5f52601160045260245ffd5b67ffffffffffffffff811161197e57604052565b634e487b7160e01b5f52604160045260245ffd5b610240810190811067ffffffffffffffff82111761197e57604052565b90601f8019910116810190811067ffffffffffffffff82111761197e57604052565b9190820391821161195657565b81156119e8570490565b634e487b7160e01b5f52601260045260245ffd5b8181029291811591840414171561195657565b600254611a9c611a75611a4e611a27600154856119d1565b7f0000000000000000000000000000000000000000000000000000000000000000906119de565b7f0000000000000000000000000000000000000000000000000000000000000000906119de565b7f0000000000000000000000000000000000000000000000000000000000000000906119fc565b9161271092830180841161195657611ad584917f00000000000000000000000000000000000000000000000000000000000000006119fc565b0492611b035f937f000000000000000000000000000000000000000000000000000000000000000090611949565b4211611b18575b50611b158284611949565b90565b909150611b457f0000000000000000000000000000000000000000000000000000000000000000846119fc565b04905f611b0a565b60035460ff8160281c1660078110156119285760011480611ba8575b611b705750565b60ff60281b191665060000000000176003557f22da757fb8c2089faf08988462783de772e45587b5d991198ee1e1d273c645795f80a1565b507f00000000000000000000000000000000000000000000000000000000000000004211611b69565b6040516331a9108f60e11b81527f000000000000000000000000000000000000000000000000000000000000000060048201526001600160a01b036020826024817f000000000000000000000000000000000000000000000000000000000000000085165afa91821561190a575f92611c4957505090565b9091506020813d602011611c7a575b81611c65602093836119af565b81010312611915575190811681036119155790565b3d9150611c58565b5f80516020611d9a8339815191526002815414611c9f5760029055565b604051633ee5aeb560e01b8152600490fd5b6040516323b872dd60e01b5f9081526001600160a01b03938416600452938316602452604494909452909160209060648180855af160015f5114811615611d1b575b836040525f60605215611d0557505050565b635274afe760e01b835216600482015260249150fd5b6001811516611d3157813b15153d151616611cf3565b833d5f823e3d90fd5b60405163a9059cbb60e01b5f9081526001600160a01b039384166004526024949094529260209060448180855af160015f5114811615611d83575b8360405215611d0557505050565b6001811516611d3157813b15153d151616611d7556fe9b779b17422d0df92223018b32b4d1fa46e071723d6817e2486d003becc55f00a2646970667358221220517a7833c591de3f26290aed4e50527ba0faede1ece0420919ed5cbd4edaef9264736f6c63430008180033",
  "linkReferences": {},
  "deployedLinkReferences": {},
  "immutableReferences": {
    "1009": [
      {
        "length": 32,
        "start": 4597
      },
      {
        "length": 32,
        "start": 7188
      }
    ],
    "1015": [
      {
        "length": 32,
        "start": 479
      },
      {
        "length": 32,
        "start": 1316
      },
      {
        "length": 32,
        "start": 1862
      },
      {
        "length": 32,
        "start": 3435
      },
      {
        "length": 32,
        "start": 5283
      },
      {
        "length": 32,
        "start": 6344
      },
      {
        "length": 32,
        "start": 7136
      }
    ],
    "1018": [
      {
        "length": 32,
        "start": 960
      },
      {
        "length": 32,
        "start": 1088
      },
      {
        "length": 32,
        "start": 1417
      },
      {
        "length": 32,
        "start": 1905
      },
      {
        "length": 32,
        "start": 2628
      },
      {
        "length": 32,
        "start": 2895
      },
      {
        "length": 32,
        "start": 4365
      },
      {
        "length": 32,
        "start": 4975
      },
      {
        "length": 32,
        "start": 5514
      }
    ],
    "1021": [
      {
        "length": 32,
        "start": 994
      },
      {
        "length": 32,
        "start": 2928
      },
      {
        "length": 32,
        "start": 3720
      },
      {
        "length": 32,
        "start": 4225
      },
      {
        "length": 32,
        "start": 5009
      },
      {
        "length": 32,
        "start": 5726
      },
      {
        "length": 32,
        "start": 5824
      }
    ],
    "1023": [
      {
        "length": 32,
        "start": 1549
      }
    ],
    "1026": [
      {
        "length": 32,
        "start": 1951
      },
      {
        "length": 32,
        "start": 6080
      },
      {
        "length": 32,
        "start": 6833
      }
    ],
    "1029": [
      {
        "length": 32,
        "start": 925
      },
      {
        "length": 32,
        "start": 2072
      },
      {
        "length": 32,
        "start": 3803
      },
      {
        "length": 32,
        "start": 4119
      },
      {
        "length": 32,
        "start": 4727
      },
      {
        "length": 32,
        "start": 4940
      },
      {
        "length": 32,
        "start": 5607
      }
    ],
    "1032": [
      {
        "length": 32,
        "start": 1650
      },
      {
        "length": 32,
        "start": 2111
      },
      {
        "length": 32,
        "start": 6775
      }
    ],
    "1035": [
      {
        "length": 32,
        "start": 2150
      },
      {
        "length": 32,
        "start": 4501
      },
      {
        "length": 32,
        "start": 6944
      }
    ],
    "1038": [
      {
        "length": 32,
        "start": 2189
      },
      {
        "length": 32,
        "start": 3124
      },
      {
        "length": 32,
        "start": 3263
      },
      {
        "length": 32,
        "start": 6878
      }
    ],
    "1041": [
      {
        "length": 32,
        "start": 2034
      },
      {
        "length": 32,
        "start": 2847
      },
      {
        "length": 32,
        "start": 5895
      },
      {
        "length": 32,
        "start": 6697
      }
    ],
    "1044": [
      {
        "length": 32,
        "start": 2228
      },
      {
        "length": 32,
        "start": 2733
      },
      {
        "length": 32,
        "start": 5329
      },
      {
        "length": 32,
        "start": 5954
      },
      {
        "length": 32,
        "start": 6175
      }
    ],
    "1047": [
      {
        "length": 32,
        "start": 2267
      },
      {
        "length": 32,
        "start": 4668
      },
      {
        "length": 32,
        "start": 7083
      }
    ],
    "1055": [
      {
        "length": 32,
        "start": 3614
      },
      {
        "length": 32,
        "start": 6736
      }
    ]
  },
  "inputSourceName": "project/contracts/RentalAgreement.sol",
  "buildInfoId": "solc-0_8_24-67bf6f9f9e19a83eb9bfd1f298d163c0542d7da9"
}