{
  "_format": "hh3-artifact-1",
  "contractName": "Review",
  "sourceName": "contracts/Review.sol",
  "abi": [
    {
      "inputs": [
        {
          "internalType": "address",
          "name": "_propertyNFT",
          "type": "address"
        },
        {
          "internalType": "address",
          "name": "_factory",
          "type": "address"
        }
      ],
      "stateMutability": "nonpayable",
      "type": "constructor"
    },
    {
      "inputs": [],
      "name": "CommentTooLong",
      "type": "error"
    },
    {
      "inputs": [],
      "name": "InvalidRating",
      "type": "error"
    },
    {
      "inputs": [],
      "name": "NoActiveOrCompletedRental",
      "type": "error"
    },
    {
      "inputs": [],
      "name": "NotTenantOfRental",
      "type": "error"
    },
    {
      "inputs": [],
      "name": "ReviewAlreadyPosted",
      "type": "error"
    },
    {
      "inputs": [],
      "name": "UnauthorizedCaller",
      "type": "error"
    },
    {
      "anonymous": false,
      "inputs": [
        {
          "indexed": true,
          "internalType": "uint256",
          "name": "propertyId",
          "type": "uint256"
        },
        {
          "indexed": true,
          "internalType": "address",
          "name": "author",
          "type": "address"
        },
        {
          "indexed": true,
          "internalType": "address",
          "name": "agreement",
          "type": "address"
        },
        {
          "indexed": false,
          "internalType": "uint8",
          "name": "rating",
          "type": "uint8"
        },
        {
          "indexed": false,
          "internalType": "string",
          "name": "comment",
          "type": "string"
        }
      ],
      "name": "ReviewPosted",
      "type": "event"
    },
    {
      "inputs": [],
      "name": "MAX_COMMENT_LENGTH",
      "outputs": [
        {
          "internalType": "uint256",
          "name": "",
          "type": "uint256"
        }
      ],
      "stateMutability": "view",
      "type": "function"
    },
    {
      "inputs": [],
      "name": "factory",
      "outputs": [
        {
          "internalType": "address",
          "name": "",
          "type": "address"
        }
      ],
      "stateMutability": "view",
      "type": "function"
    },
    {
      "inputs": [
        {
          "internalType": "uint256",
          "name": "propertyId",
          "type": "uint256"
        },
        {
          "internalType": "uint256",
          "name": "index",
          "type": "uint256"
        }
      ],
      "name": "getReview",
      "outputs": [
        {
          "components": [
            {
              "internalType": "address",
              "name": "author",
              "type": "address"
            },
            {
              "internalType": "address",
              "name": "agreement",
              "type": "address"
            },
            {
              "internalType": "uint8",
              "name": "rating",
              "type": "uint8"
            },
            {
              "internalType": "string",
              "name": "comment",
              "type": "string"
            },
            {
              "internalType": "uint256",
              "name": "timestamp",
              "type": "uint256"
            }
          ],
          "internalType": "struct IReview.Review",
          "name": "",
          "type": "tuple"
        }
      ],
      "stateMutability": "view",
      "type": "function"
    },
    {
      "inputs": [
        {
          "internalType": "uint256",
          "name": "propertyId",
          "type": "uint256"
        }
      ],
      "name": "getReviewCount",
      "outputs": [
        {
          "internalType": "uint256",
          "name": "",
          "type": "uint256"
        }
      ],
      "stateMutability": "view",
      "type": "function"
    },
    {
      "inputs": [
        {
          "internalType": "address",
          "name": "",
          "type": "address"
        }
      ],
      "name": "hasReviewed",
      "outputs": [
        {
          "internalType": "bool",
          "name": "",
          "type": "bool"
        }
      ],
      "stateMutability": "view",
      "type": "function"
    },
    {
      "inputs": [
        {
          "internalType": "uint256",
          "name": "propertyId",
          "type": "uint256"
        },
        {
          "internalType": "uint8",
          "name": "rating",
          "type": "uint8"
        },
        {
          "internalType": "string",
          "name": "comment",
          "type": "string"
        }
      ],
      "name": "postReview",
      "outputs": [],
      "stateMutability": "nonpayable",
      "type": "function"
    },
    {
      "inputs": [],
      "name": "propertyNFT",
      "outputs": [
        {
          "internalType": "address",
          "name": "",
          "type": "address"
        }
      ],
      "stateMutability": "view",
      "type": "function"
    }
  ],
  "bytecode": "0x60c03461008157601f610a3838819003918201601f19168301916001600160401b0383118484101761008557808492604094855283398101031261008157610052602061004b83610099565b9201610099565b9060805260a05260405161098a90816100ae823960805181818161033f015261084f015260a051816102810152f35b5f80fd5b634e487b7160e01b5f52604160045260245ffd5b51906001600160a01b03821682036100815756fe608060409080825260049081361015610016575f80fd5b60e05f3560e01c91826337f768381461083d575081635856e4fa146108215781635d75135a146107fa5781637068a8c7146102b0578163c45a01551461026d578163dfa505ed146100b2575063f5c6cc2914610070575f80fd5b346100ae5760203660031901126100ae57356001600160a01b03811691908290036100ae576020915f526001825260ff815f20541690519015158152f35b5f80fd5b919050346100ae57826003193601126100ae578251906100d18261087e565b5f82525f6080602093828582015282878201526060808201520152355f525f8152610100602435845f206108ef565b509083519361010e8561087e565b60018060a01b0380845416865260019160018501549184880195818416875260ff838a019460a01c1684526002810183519586915f918154916101508361091c565b928386528b6001821691825f14610247575050600114610208575b50505060ff949261018a859c9a986003939c9a9c9896949803886108ae565b60608a019687520154956080890196875282519a8b998b8b5251168a8a0152511690870152511660608501525160a060808501528051928360c08601525f5b8481106101f25750505060e093505f8483850101525160a0830152601f80199101168101030190f35b80830187015188820183015287955086016101c9565b8a93505f92919252825f20915f925b82841061022f5750505082010161018a8260ff61016b565b8054848c018601528a95508b94909301928101610217565b60ff19168782015293151560051b8601909301935061018a925084915060ff905061016b565b83346100ae575f3660031901126100ae57517f00000000000000000000000000000000000000000000000000000000000000006001600160a01b03168152602090f35b5050346100ae5760603660031901126100ae5760243560ff81168091036100ae5767ffffffffffffffff906044358281116100ae57366023820112156100ae5780840135908382116100ae5736602483830101116100ae576001831080156107f0575b6107e05761011882116107d05785516324e15f5760e11b81526001600160a01b039690602090818189817f00000000000000000000000000000000000000000000000000000000000000008d165afa9081156107a957899183915f916107b3575b508451636178f8a560e11b81528a358b8201529283916024918391165afa9081156107a9579089915f9161078c575b50169788156106e057825163adf0779160e01b815282818a818d5afa908115610745575f9161075f575b50813391160361074f578251631006976960e11b815282818a818d5afa908115610745575f9161070f575b5060078110156106fc57600281141590816106f0575b506106e057885f526001825260ff835f2054166106d057885f5260018252825f20600160ff1982541617905587355f525f8252825f208351916104508361087e565b3383528a848401528785840152601f19601f88011698855191610475868c01846108ae565b8883528860248901878501375f868a85010152606085019283526080850193428552805490680100000000000000008210156106bd57906104bb916001820181556108ef565b9590956106ab57818151166bffffffffffffffffffffffff60a01b875416178655600186019187820151168254918960ff60a01b91015160a01b16916affffffffffffffffffffff60a81b1617179055600284019151805191821161069857610524835461091c565b601f8111610655575b508590601f83116001146105bf57968996879660036024975f9c977fdc6f70dd5d42a5d27616431ab2826c6375ded67d79866e41ed0d19a006cf7a239f9e97808f9860609f899a926105b4575b50508160011b915f1990861b1c19161790555b5191015581519a8b528a0152880152018386013783010152606081339535948101030190a4005b015190505f8061057a565b90601f19831691845f52875f20925f5b81811061063e57509660036024975f9c977fdc6f70dd5d42a5d27616431ab2826c6375ded67d79866e41ed0d19a006cf7a239f9e9b94888e9860609f988f9e938f9c60019510610627575b505050811b01905561058d565b01515f1983881b60f8161c191690555f808061061a565b9293896001819287860151815501950193016105cf565b835f52865f20601f840160051c81019188851061068e575b601f0160051c01905b818110610683575061052d565b5f8155600101610676565b909150819061066d565b60418c634e487b7160e01b5f525260245ffd5b5f8d634e487b7160e01b82525260245ffd5b60418e634e487b7160e01b5f525260245ffd5b825163d80698b560e01b81528890fd5b8251631f5d033b60e01b81528890fd5b6003915014155f61040e565b602189634e487b7160e01b5f525260245ffd5b90508281813d831161073e575b61072681836108ae565b810103126100ae575160078110156100ae575f6103f8565b503d61071c565b84513d5f823e3d90fd5b8251630935ca2760e21b81528890fd5b61077f9150833d8511610785575b61077781836108ae565b8101906108d0565b5f6103cd565b503d61076d565b6107a39150833d85116107855761077781836108ae565b5f6103a3565b83513d5f823e3d90fd5b6107ca9150823d84116107855761077781836108ae565b5f610374565b8551632f5410ab60e21b81528590fd5b855163d29df2dd60e01b81528590fd5b5060058311610313565b8284346100ae5760203660031901126100ae57602091355f525f8252805f20549051908152f35b83346100ae575f3660031901126100ae57602090516101188152f35b346100ae575f3660031901126100ae577f00000000000000000000000000000000000000000000000000000000000000006001600160a01b03168152602090f35b60a0810190811067ffffffffffffffff82111761089a57604052565b634e487b7160e01b5f52604160045260245ffd5b90601f8019910116810190811067ffffffffffffffff82111761089a57604052565b908160209103126100ae57516001600160a01b03811681036100ae5790565b8054821015610908575f5260205f209060021b01905f90565b634e487b7160e01b5f52603260045260245ffd5b90600182811c9216801561094a575b602083101461093657565b634e487b7160e01b5f52602260045260245ffd5b91607f169161092b56fea2646970667358221220b7e6163f7a8d0996e5485fd4ac52d3f65f88d99b52b5c1b40c9c2f5125425bb964736f6c63430008180033",
  "linkReferences": {},
  "deployedLinkReferences": {},
  "immutableReferences": {
    "142": [
      {
        "length": 32,
        "start": 831
      },
      {
        "length": 32,
        "start": 2127
      }
    ],
    "145": [
      {
        "length": 32,
        "start": 641
      }
    ]
  },
  "inputSourceName": "project/contracts/Review.sol",
  "buildInfoId": "solc-0_8_24-53d0da1028cf8fc12144297fadab45078fa72f6c"
}