{
  "_format": "hh3-artifact-1",
  "contractName": "Review",
  "sourceName": "contracts/Review.sol",
  "abi": [
    {
      "inputs": [
        {
          "internalType": "address",
          "name": "_propertyNFT",
          "type": "address"
        },
        {
          "internalType": "address",
          "name": "_factory",
          "type": "address"
        }
      ],
      "stateMutability": "nonpayable",
      "type": "constructor"
    },
    {
      "inputs": [],
      "name": "CommentTooLong",
      "type": "error"
    },
    {
      "inputs": [],
      "name": "InvalidAgreement",
      "type": "error"
    },
    {
      "inputs": [],
      "name": "InvalidRating",
      "type": "error"
    },
    {
      "inputs": [],
      "name": "NoActiveOrCompletedRental",
      "type": "error"
    },
    {
      "inputs": [],
      "name": "NotTenantOfRental",
      "type": "error"
    },
    {
      "inputs": [],
      "name": "ReviewAlreadyPosted",
      "type": "error"
    },
    {
      "inputs": [],
      "name": "UnauthorizedCaller",
      "type": "error"
    },
    {
      "anonymous": false,
      "inputs": [
        {
          "indexed": true,
          "internalType": "uint256",
          "name": "propertyId",
          "type": "uint256"
        },
        {
          "indexed": true,
          "internalType": "address",
          "name": "author",
          "type": "address"
        },
        {
          "indexed": true,
          "internalType": "address",
          "name": "agreement",
          "type": "address"
        },
        {
          "indexed": false,
          "internalType": "uint8",
          "name": "rating",
          "type": "uint8"
        },
        {
          "indexed": false,
          "internalType": "string",
          "name": "comment",
          "type": "string"
        }
      ],
      "name": "ReviewPosted",
      "type": "event"
    },
    {
      "inputs": [],
      "name": "MAX_COMMENT_LENGTH",
      "outputs": [
        {
          "internalType": "uint256",
          "name": "",
          "type": "uint256"
        }
      ],
      "stateMutability": "view",
      "type": "function"
    },
    {
      "inputs": [],
      "name": "factory",
      "outputs": [
        {
          "internalType": "address",
          "name": "",
          "type": "address"
        }
      ],
      "stateMutability": "view",
      "type": "function"
    },
    {
      "inputs": [
        {
          "internalType": "uint256",
          "name": "propertyId",
          "type": "uint256"
        },
        {
          "internalType": "uint256",
          "name": "index",
          "type": "uint256"
        }
      ],
      "name": "getReview",
      "outputs": [
        {
          "components": [
            {
              "internalType": "address",
              "name": "author",
              "type": "address"
            },
            {
              "internalType": "address",
              "name": "agreement",
              "type": "address"
            },
            {
              "internalType": "uint8",
              "name": "rating",
              "type": "uint8"
            },
            {
              "internalType": "string",
              "name": "comment",
              "type": "string"
            },
            {
              "internalType": "uint256",
              "name": "timestamp",
              "type": "uint256"
            }
          ],
          "internalType": "struct IReview.Review",
          "name": "",
          "type": "tuple"
        }
      ],
      "stateMutability": "view",
      "type": "function"
    },
    {
      "inputs": [
        {
          "internalType": "uint256",
          "name": "propertyId",
          "type": "uint256"
        }
      ],
      "name": "getReviewCount",
      "outputs": [
        {
          "internalType": "uint256",
          "name": "",
          "type": "uint256"
        }
      ],
      "stateMutability": "view",
      "type": "function"
    },
    {
      "inputs": [
        {
          "internalType": "address",
          "name": "",
          "type": "address"
        }
      ],
      "name": "hasReviewed",
      "outputs": [
        {
          "internalType": "bool",
          "name": "",
          "type": "bool"
        }
      ],
      "stateMutability": "view",
      "type": "function"
    },
    {
      "inputs": [
        {
          "internalType": "address",
          "name": "",
          "type": "address"
        }
      ],
      "name": "hasReviewedLandlord",
      "outputs": [
        {
          "internalType": "bool",
          "name": "",
          "type": "bool"
        }
      ],
      "stateMutability": "view",
      "type": "function"
    },
    {
      "inputs": [
        {
          "internalType": "uint256",
          "name": "",
          "type": "uint256"
        }
      ],
      "name": "hasReviewedLandlordGeneral",
      "outputs": [
        {
          "internalType": "bool",
          "name": "",
          "type": "bool"
        }
      ],
      "stateMutability": "view",
      "type": "function"
    },
    {
      "inputs": [
        {
          "internalType": "uint256",
          "name": "propertyId",
          "type": "uint256"
        },
        {
          "internalType": "uint8",
          "name": "rating",
          "type": "uint8"
        },
        {
          "internalType": "string",
          "name": "comment",
          "type": "string"
        }
      ],
      "name": "postReview",
      "outputs": [],
      "stateMutability": "nonpayable",
      "type": "function"
    },
    {
      "inputs": [],
      "name": "propertyNFT",
      "outputs": [
        {
          "internalType": "address",
          "name": "",
          "type": "address"
        }
      ],
      "stateMutability": "view",
      "type": "function"
    }
  ],
  "bytecode": "0x60c03461008157601f610c0c38819003918201601f19168301916001600160401b0383118484101761008557808492604094855283398101031261008157610052602061004b83610099565b9201610099565b9060805260a052604051610b5e90816100ae82396080518181816103cd01526107fa015260a051816102c40152f35b5f80fd5b634e487b7160e01b5f52604160045260245ffd5b51906001600160a01b03821682036100815756fe608060409080825260049081361015610016575f80fd5b60e05f3560e01c91826337f76838146107e8575081635856e4fa146107cc5781635d75135a146107a55781637068a8c71461033357816379f72715146102f3578163c45a0155146102b0578163da11330c14610283578163dfa505ed146100c8575063f5c6cc2914610086575f80fd5b346100c45760203660031901126100c457356001600160a01b03811691908290036100c4576020915f526001825260ff815f20541690519015158152f35b5f80fd5b919050346100c457826003193601126100c4578251906100e782610829565b5f82525f6080602093828582015282878201526060808201520152355f525f8152610116602435845f206108e0565b509083519361012485610829565b60018060a01b0380845416865260019160018501549184880195818416875260ff838a019460a01c1684526002810183519586915f918154916101668361090d565b928386528b6001821691825f1461025d57505060011461021e575b50505060ff94926101a0859c9a986003939c9a9c989694980388610859565b60608a019687520154956080890196875282519a8b998b8b5251168a8a0152511690870152511660608501525160a060808501528051928360c08601525f5b8481106102085750505060e093505f8483850101525160a0830152601f80199101168101030190f35b80830187015188820183015287955086016101df565b8a93505f92919252825f20915f925b828410610245575050508201016101a08260ff610181565b8054848c018601528a95508b9490930192810161022d565b60ff19168782015293151560051b860190930193506101a0925084915060ff9050610181565b8284346100c45760203660031901126100c457602091355f526003825260ff815f20541690519015158152f35b83346100c4575f3660031901126100c457517f00000000000000000000000000000000000000000000000000000000000000006001600160a01b03168152602090f35b5050346100c45760203660031901126100c457356001600160a01b03811691908290036100c4576020915f526002825260ff815f20541690519015158152f35b8284346100c45760603660031901126100c457813560249182359260ff8416918285036100c4576044359167ffffffffffffffff938484116100c457366023850112156100c457838801359485116100c45781840193828636920101116100c4576001808210801561079b575b61078b57610118861161077b5783516331a9108f60e11b81528981018890526020936001600160a01b03917f0000000000000000000000000000000000000000000000000000000000000000831686828481845afa918215610702578d93929188915f9361075c575b5089516324e15f5760e11b815294859182905afa928315610702578b8e89925f9661073b575b508490878c519788948593636178f8a560e11b8552840152165afa928315610702579084915f9461071c575b501633145f1461057757501698891561051e57895f526002845260ff855f205416610510575061050b927fdc6f70dd5d42a5d27616431ab2826c6375ded67d79866e41ed0d19a006cf7a23969594926104ff928b5f5260028352845f209060ff198254161790555b885f525f8252835f20908b8551936104da85610829565b338552840152848301526104ef36888861089a565b6060830152426080830152610945565b51928392339784610af8565b0390a4005b845163d80698b560e01b8152fd5b875f526003845260ff855f205416610510575061050b927fdc6f70dd5d42a5d27616431ab2826c6375ded67d79866e41ed0d19a006cf7a23969594926104ff92895f5260038352845f209060ff198254161790556104c3565b9082169a918b1561070c578290868d89519384809263adf0779160e01b82525afa918215610702575f926106d3575b50339116036106c4578551631006976960e11b815290858284818f5afa9182156106ba575f92610682575b506007821015610670575060028114159081610664575b5061065657895f5281845260ff855f205416610510575061050b927fdc6f70dd5d42a5d27616431ab2826c6375ded67d79866e41ed0d19a006cf7a23969594926104ff928b5f52808352845f209060ff19825416179055885f525f8252835f20908b8551936104da85610829565b8451631f5d033b60e01b8152fd5b6003915014158b6105e8565b634e487b7160e01b5f90815260218452fd5b9091508581813d83116106b3575b61069a8183610859565b810103126100c4575160078110156100c457908c6105d1565b503d610690565b87513d5f823e3d90fd5b508451630935ca2760e21b8152fd5b6106f4919250873d89116106fb575b6106ec8183610859565b81019061087b565b908d6105a6565b503d6106e2565b88513d5f823e3d90fd5b8651631f5d033b60e01b81528390fd5b610734919450883d8a116106fb576106ec8183610859565b928e61045b565b8591965061075590843d86116106fb576106ec8183610859565b959061042f565b610774919350823d84116106fb576106ec8183610859565b918f610409565b8351632f5410ab60e21b81528990fd5b835163d29df2dd60e01b81528990fd5b50600582116103a0565b8284346100c45760203660031901126100c457602091355f525f8252805f20549051908152f35b83346100c4575f3660031901126100c457602090516101188152f35b346100c4575f3660031901126100c4577f00000000000000000000000000000000000000000000000000000000000000006001600160a01b03168152602090f35b60a0810190811067ffffffffffffffff82111761084557604052565b634e487b7160e01b5f52604160045260245ffd5b90601f8019910116810190811067ffffffffffffffff82111761084557604052565b908160209103126100c457516001600160a01b03811681036100c45790565b92919267ffffffffffffffff821161084557604051916108c4601f8201601f191660200184610859565b8294818452818301116100c4578281602093845f960137010152565b80548210156108f9575f5260205f209060021b01905f90565b634e487b7160e01b5f52603260045260245ffd5b90600182811c9216801561093b575b602083101461092757565b634e487b7160e01b5f52602260045260245ffd5b91607f169161091c565b805468010000000000000000811015610845576109699060019283820181556108e0565b929092610ae55760018060a01b03808251166bffffffffffffffffffffffff60a01b855416178455828401602091828401511681549060ff60a01b604086015160a01b16916affffffffffffffffffffff60a81b1617179055600284019060608301519384519167ffffffffffffffff8311610845576109e9845461090d565b601f8111610a9f575b5080601f8411600114610a3557509180809260809695946003985f94610a2a575b50501b915f1990871b1c19161790555b0151910155565b015192505f80610a13565b91939495601f198416865f52835f20935f905b828210610a885750509160039795939185608098969410610a71575b505050811b019055610a23565b01515f1983891b60f8161c191690555f8080610a64565b808886978294978701518155019601940190610a48565b845f52815f20601f850160051c810191838610610adb575b601f0160051c019083905b828110610ad05750506109f2565b5f8155018390610ac2565b9091508190610ab7565b634e487b7160e01b5f525f60045260245ffd5b919260609360ff829316845260406020850152816040850152848401375f828201840152601f01601f191601019056fea2646970667358221220b8015756fe07d33e0aebec0cd55e82e51707320fe09a2576a33aecde2801bdef64736f6c63430008180033",
  "linkReferences": {},
  "deployedLinkReferences": {},
  "immutableReferences": {
    "142": [
      {
        "length": 32,
        "start": 973
      },
      {
        "length": 32,
        "start": 2042
      }
    ],
    "145": [
      {
        "length": 32,
        "start": 708
      }
    ]
  },
  "inputSourceName": "project/contracts/Review.sol",
  "buildInfoId": "solc-0_8_24-40d1869bad55cc87e3c963bd0c8655bfba9856a7"
}